:020000040800F2
:10000000B81D00209D010008930D0008E10C0008B8
:10001000910D00082D020008C50E00080000000028
:1000200000000000000000000000000005010008C2
:100030002F0200080000000049010008CD0D000853
:10004000B7010008B7010008B7010008B7010008B0
:10005000B7010008B7010008B7010008B7010008A0
:10006000B7010008B7010008B7010008B701000890
:10007000B7010008B7010008B7010008B701000880
:10008000B7010008B7010008B7010008B701000870
:10009000B7010008B7010008B7010008B701000860
:1000A000B7010008B7010008B7010008B701000850
:1000B0004D0E0008B7010008B7010008B70100089D
:1000C000B7010008B7010008B7010008B701000830
:1000D000B7010008B7010008B7010008B701000820
:1000E000B7010008B7010008B7010008DFF810D019
:1000F00000F08AF800480047510F0008AFF3008075
:10010000B81D0020224B19680868B0E8F00F80F392
:100110000988BFF36F8F4FF0000080F311884EF015
:100120000D0E70470000000006480068006880F36C
:10013000088862B661B6BFF34F8FBFF36F8F00DFE1
:1001400000BF00BF08ED00E0EFF30980BFF36F8F41
:100150000F4B1A6820E9F00F106008B54FF05000FF
:1001600080F31188BFF34F8FBFF36F8F01F0ECFE68
:100170004FF0000080F31188BDE808401968086856
:10018000B0E8F00F80F30988BFF36F8F704700BFAE
:1001900024000020EFF305807047000006488047E8
:1001A00006480047FEE7FEE7FEE7FEE7FEE7FEE75C
:1001B000FEE7FEE7FEE7FEE7490E0008ED00000857
:1001C00040EA01039B0703D009E008C9121F08C0D9
:1001D000042AFAD203E011F8013B00F8013B521E59
:1001E000F9D27047D2B201E000F8012B491EFBD2D0
:1001F00070470022F6E710B513460A460446194632
:10020000FFF7F0FF204610BD064C074D06E0E06802
:1002100040F0010394E8070098471034AC42F6D34D
:10022000FFF768FFE82A0008082B0008FEE7704780
:100230002DE9F84FDFF8B891002409F1040A0AF11A
:10024000040B23460F270BF1040EC9E00125A5403E
:100250002A40AA427DD1674ED1F804C0ACEB060813
:10026000B44532D014DCBCF1030F3AD009DCBCF148
:10027000000F2AD0BCF1010F1CD0BCF1020F31D10C
:100280001DE0BCF1110F17D0BCF1120F2AD119E0FB
:10029000B8F5881F19D006DCB8F5803F15D0B8F541
:1002A000801F1FD111E0B8F5001F0ED0B8F5041F54
:1002B00018D10AE0CB6815E0CB681B1D12E0CB68B3
:1002C00008330FE0CB680C330CE08B682BB1012BAB
:1002D0004FF0080303D0456104E0042302E0056108
:1002E00000E00023FF2A01D8064601E000F10406E1
:1002F0004FEA840501D9A5F12005D6F8008007FA58
:1003000005FC28EA0C0803FA05F548EA0508C6F8D2
:1003100000804D68ED0062D5374DAE6946F00106AC
:10032000AE61AD6924F0030605F001050095334D7B
:1003300006EB050CDCF80850A607360F07FA06F89E
:1003400025EA0805DFF8B880404503D14FF00008E2
:1003500017E044E0DFF8AC80404502D14FF00108DF
:100360000FE0DFF8A480404502D14FF0020808E01A
:10037000DFF89880404502D14FF0030801E04FF0CC
:10038000040808FA06F848EA0508CCF808804D6821
:10039000D9F80060ED034D4601D5164300E09643C1
:1003A0002E604D68DAF80060AD03554601D516435E
:1003B00000E096432E604D68DBF80060ED025D467C
:1003C00001D5164300E096432E604D68DEF80060CC
:1003D000AD02754601D5164300E096432E60641CBD
:1003E0000D682A46E5407FF431AFBDE8F88F000084
:1003F0000004014000001110001002400000014004
:1004000000080140000C01400010014000140140B0
:100410000AB1016170470904FBE7000001488068E8
:1004200070470000140000200248816802781144DF
:100430008160704714000020074810B5016841F042
:1004400010010160032000F093F8002000F006F88E
:1004500000F03CF8002010BD0020024000B501462D
:1004600087B000221C2000F063F81C2000F052F836
:100470001348C16941F00101C161C06905A900F0DB
:1004800001000690684600F01BF900F039F90D49AB
:100490004FF08042B0FBF1F10B48491E0260416011
:1004A00040F2E7320021C0E90321816000F000FB47
:1004B00010B1012007B000BD034800F027FBF9E7A9
:1004C0000010024040420F009C0000200F4808B579
:1004D000816941F001018161816901F001010091AF
:1004E000C16941F08051C161C069002200F08050B3
:1004F00000900F21901E00F01BF80548416821F084
:10050000E06141F00071416008BD00000010024050
:1005100000000140002809DB00F01F02012191408A
:100520004009800000F1E020C0F800117047000091
:10053000F0B40E4B1B680C46C3F30223C3F107054E
:10054000042D00D90425191D072901D2002300E03C
:10055000DB1E012606FA05F1491E214099409E4006
:10056000761E16403143F0BC00F0ADBC0CED00E04F
:10057000064900F0070208684FF6FF03184040EAFA
:100580000220034A10430860704700000CED00E0B1
:100590000000FA052DE9F0470F46050061D0434EF3
:1005A000306800F00700B84209D2306820F0070038
:1005B00038433060306800F00700B84251D12868F5
:1005C0003B4C810712D5400703D5606840F4E060DA
:1005D00060602878000703D5606840F46050606070
:1005E0006068A96820F0F000084360602878C007C0
:1005F00028D06868012810D02168022810D0890707
:1006000000292EDA616821F0030101436160FFF7E0
:1006100005FF804641F288390DE021688903EFE744
:100620008901EDE7FFF7FAFEA0EB0801494502D981
:100630000320BDE8F0876068696800F00C00B0EB4B
:10064000810FEFD1306800F00700B8420BD9306855
:1006500020F0070038433060306800F00700B842EF
:1006600001D00120E5E72878400705D56068E968F2
:1006700020F4E060084360602878000706D56068D1
:10068000296920F4605040EAC100606000F048F839
:100690006168084AC1F30311515CC840064908600B
:1006A00006480068FFF7DAFE0020C2E7002002409B
:1006B00000100240C42A000820000020180000207A
:1006C0000F2202600C4A536803F00303436053682F
:1006D00003F0F0038360536803F4E063C36052687F
:1006E0004FF4E06303EAD20202610448006800F0BC
:1006F0000700086070470000001002400020024020
:100700000448054900684968044AC1F30221515C64
:10071000C84070472000002000100240D42A000882
:1007200012A185B00FC98DE80F0014A0144A00680B
:1007300004905168134801F00C03042B10D0082BCF
:100740000ED1C1F38343C9031DF803000AD55168D4
:1007500004AAC1F34041515C0A4A5043B0FBF1F096
:1007600005B0704708494843FAE700000203040552
:10077000060708090A0B0C0D0E0F101001020000ED
:100780000010024000127A0000093D002DE9F84FE8
:10079000040070D02078C04DC00749D06868C0F30D
:1007A0008100012807D06868C0F38100022809D1C0
:1007B0006868C00306D52868800339D560680028BA
:1007C000E7D035E06068B0F5803F0BD010B1B0F5F0
:1007D000A02F11D0286820F480302860286820F4E9
:1007E000802002E0286840F480302860606890B182
:1007F000FFF714FE06460AE0286840F480202860CF
:10080000F0E700BFFFF70AFE801B642873D8286852
:100810008003F7D50CE0FFF701FE064605E000BFB8
:10082000FFF7FCFD801B6428F0D828688003F7D40C
:1008300020789A4E80074FF001094FF0000839D513
:10084000686810F00C0F07D06868C0F381000228B8
:1008500009D16868C00306D42868800714D52069C8
:10086000012808D110E02069B0B1C6F80090FFF768
:10087000D5FD074605E00AE1FFF7D0FDC01B0228C1
:10088000C4D828688007F7D52868616920F0F80087
:1008900040EAC10028600DE0C6F80080FFF7BEFD09
:1008A000074604E0FFF7BAFDC01B022823D82868DA
:1008B0008007F7D4207800072CD57948A169D9B1F1
:1008C000C0F80090FFF7AAFD074604E0FFF7A6FD79
:1008D000C01B02280FD8686A8007F7D571484FF40B
:1008E000FA510068B0FBF1F0009000BF0098411E83
:1008F0000091FAD20EE080E0C0F80080FFF78EFD94
:10090000074604E0FFF78AFDC01B022875D8686A15
:100910008007F7D42078400760D5E8690027C00039
:1009200008D4E86940F08050E861E869012700F0E8
:10093000805000905C480168C90513D40168834663
:1009400041F480710160FFF769FD824606E000BF57
:10095000FFF764FDA0EB0A0064284ED8DBF8000026
:10096000C005F5D5E06801280AD008B1052813D0E4
:10097000286A20F001002862286A20F0040002E0C2
:10098000286A40F001002862E06841F2883B98B193
:10099000FFF744FD82460BE0286A40F0040028621D
:1009A000EEE700BFFFF73AFDA0EB0A0159455AD820
:1009B000286A8007F6D50CE0FFF730FD824605E097
:1009C000FFF72CFDA0EB0A0159454CD8286A800797
:1009D000F6D41FB1E86920F08050E861E06988B37F
:1009E0006968C1F38101022944D00228C6F86080F9
:1009F00004D0FFF713FD044638E034E0FFF70EFDA6
:100A0000074604E0FFF70AFDC01B02282BD8286820
:100A10008001F7D4206AB0F5803F05D16868A168ED
:100A200020F4003008436860D4E90801084369688D
:100A300021F4741108436860C6F86090FFF7EEFC7B
:100A4000044606E025E000BFFFF7E8FC001B022893
:100A500009D828688001F7D51BE000BFFFF7DEFC4E
:100A6000001B022802D90320BDE8F88F2868800106
:100A7000F4D40EE00128F7D06868226A00F48031CF
:100A8000914204D1616A00F47010884201D00120C3
:100A9000EAE70020E8E700000010024000004242C0
:100AA00080044242200000200070004070477047E0
:100AB00010B5040003D094F83D0010B107E0012008
:100AC00010BD002084F83C00204600F01EF80220F3
:100AD00084F83D00211D206800F0BEF9012084F853
:100AE000460084F83E0084F83F0084F8400084F813
:100AF000410084F8420084F8430084F8440084F8FC
:100B0000450084F83D00002010BD704790F83D106E
:100B1000012901D001207047022180F83D100168B1
:100B2000CA6842F00102CA6000680B49884208D0D6
:100B3000B0F1804F05D00949884202D00849884267
:100B400004D1816801F00701062903D0016841F052
:100B50000101016000207047002C014000040040AA
:100B600000080040704770B50446006801694FF006
:100B70000005C943890715D4C168C943890711D441
:100B8000E91E0161012020772068806980072046E6
:100B900002D0FFF7E7FF04E000F098F8204600F0ED
:100BA00096F8257720680169C943490717D4C168B9
:100BB000C943490713D46FF0040101610220207773
:100BC0002068806910F4407F204602D0FFF7CAFFFA
:100BD00004E000F07BF8204600F079F825772068E3
:100BE0000169C943090716D4C168C943090712D46A
:100BF0006FF008010161042020772068C069800738
:100C0000204602D0FFF7AEFF04E000F05FF8204678
:100C100000F05DF8257720680169C943C90617D43B
:100C2000C168C943C90613D46FF0100101610820DF
:100C300020772068C06910F4407F204602D0FFF77B
:100C400091FF04E000F042F8204600F040F82577DC
:100C500020680169C943C90708D1C168C943C907E8
:100C600004D1891E0161204600F032F82068016934
:100C7000C943090609D4C168C943090605D46FF000
:100C8000800101612046FFF711FF20680169C94317
:100C9000490609D4C168C943490605D46FF040012B
:100CA0000161204600F01BF820680169C9438906EC
:100CB0000BD4C168C943890607D46FF020010161D4
:100CC0002046BDE87040FFF7F2BE70BD7047704728
:100CD0000068B0F1804F01D1FFF7A6BB70477047A5
:100CE000FEE700002DE9F04385B00024244800947D
:100CF000019402940394816941F01001816181693A
:100D000001F010010491816941F004018161816960
:100D100001F004010491816941F008018161806959
:100D2000DFF8608000F008000490002201214046B6
:100D3000FFF76EFBDFF850904FF4807700223946C2
:100D40004846FFF765FB780101258DE831006946CB
:100D50000E48FFF76DFA022603960095CDE901547F
:100D600069464046FFF764FA00970396CDE90154BF
:100D700069464846FFF75CFA05B0BDE8F08300001D
:100D80000010024000080140000C0140001001402A
:100D9000FEE7FEE72DE9F04117460C4605461E46E4
:100DA000012219463846FFF733FB284600F004F9C4
:100DB000002231463846FFF72BFB601BBDE8F041AF
:100DC00000F0FAB8012000F0F7F8FBE710B550206A
:100DD00080F31188BFF34F8FBFF36F8F01F0AAFC30
:100DE00018B104494FF080500860002080F311884A
:100DF00010BD000004ED00E010B590B02821684659
:100E0000FFF7F7F914210AA8FFF7F3F90220009081
:100E10000120049010200024059007946846FFF7F5
:100E2000B5FC08B172B6FEE70F20CDE90A040C94B8
:100E30000D9400210AA80E94FFF7ACFB002801D006
:100E400072B6FEE710B010BD704700000148FFF712
:100E50008ABE00009C000020F0B50268164B174CBB
:100E6000174D4FF08047984205D0B84203D0A042BA
:100E700001D0A84203D122F070064A68324398425A
:100E800005D0B84203D0A04201D0A84203D122F439
:100E90004074CA6822434C6922F0800222430260F7
:100EA0008A68C2620A688262984201D10969016354
:100EB00001214161F0BD0000002C01400004004010
:100EC00000080040FEE70907090E002804DB00F1D6
:100ED000E02080F80014704700F00F0000F1E020DF
:100EE00080F8141D704702E008C8121F08C1002ACC
:100EF000FAD170477047002001E001C1121F002A9B
:100F0000FBD170470B4D0C4C4FF47A76A86800F477
:100F1000005000F013F80028F8D00121206900F0FB
:100F2000CBF80221206900F0C7F8304600F044F801
:100F3000ECE70000001001400000002010B508B1EF
:100F4000002010BD142000F037F8012010BD000073
:100F5000FFF772FAFFF750FFFFF7C4FE00F0E2F868
:100F60000F4A00210F4800F019F90F4C00221146DA
:100F700020600E4800F012F90022606011460C4813
:100F800000F00CF90022A06011460A4800F006F9B2
:100F9000E060002000F06EF8206100F0DFF8FEE76E
:100FA000A02A0008C50D0008000000205D1A0008F6
:100FB000A51A0008050F000810B5EFF3058149B91F
:100FC000EFF3108131B908490968022905D1EFF31F
:100FD000118111B16FF0050403E0002408B100F0A5
:100FE000C7FE204610BD00007400002070B50E46FC
:100FF000050002D0300E002802D06FF003041CE080
:10100000EFF3058048B9EFF3108030B90C48006861
:1010100002280ED1EFF3118058B1284601F012F8E2
:1010200004463146284600F0E1FF30B96FF0020473
:1010300003E0284600F0BAFF0446204670BD0000D9
:1010400074000020002811D0EFF3058149B9EFF3B7
:10105000108131B906490968022904D1EFF31181E1
:1010600009B100F0EFBF002100F0A0BF7047000001
:101070007400002010B54FF00001EFF30582BAB9FB
:10108000EFF31082A2B90B4A1268022A02D1EFF3E1
:1010900011826AB948B1D0E902202AB1202807D3C9
:1010A000104600F0B9FF02E010B900F0A7FF0146BA
:1010B000084610BD7400002038B50C4610B1210E52
:1010C000002902D06FF0030038BDEFF3058149B964
:1010D000EFF3108131B911490968022919D1EFF3F1
:1010E0001181B1B1002100916A46214600F0FEFF56
:1010F00010B16FF0020038BD009920460029FAD0E7
:10110000074A4FF080511160BFF34F8FBFF36F8FCD
:1011100038BD214600F0A3FF38BD00007400002058
:1011200004ED00E0EFF3058058B9EFF3108040B90B
:1011300009490868022801D030B109E0EFF31180B5
:1011400030B16FF005007047012008600020704743
:101150004FF0FF30704700007400002010B5EFF32F
:10116000058060B9EFF3108048B90B490868022880
:1011700002D0012806D00BE0EFF3118040B16FF0F0
:10118000050010BD0220086000F092FE002010BD96
:101190004FF0FF3010BD000074000020F0B585B0A6
:1011A0004FEA01034FF00004EFF305810394A1BB64
:1011B000EFF3108189BB21490968022902D1EFF3BD
:1011C000118151BB48B3802618218DF8104004AD21
:1011D00042B3176807B13D4697691FB139467F1E74
:1011E000382F02D21779FF0702D0002005B0F0BDDA
:1011F000576907B1BE08D2F808C0BCF1000F0DD086
:10120000D4685C2C18D312693AB137B18DE8061056
:101210003246294601F04FFA03900DE0D7685FB9D6
:1012200012694AB903AACDE90012B2B2294601F007
:1012300015FA012800D003940398D7E77400002022
:101240002DE9F041134C0F46054666692068001DE4
:1012500000F05AFC681C07D137B12168BDE8F041A5
:101260000D48091D00F0A4BC20683544B542456016
:10127000216805D2A068BDE8F041091D00F080BCDE
:101280006068091D00F07CFC206B854200D225635C
:10129000BDE8F08124000020D40500202DE9F041B4
:1012A000054600F091FC2D4C2069401C206120680F
:1012B0002B4F10B1E06930B32BE025602069012885
:1012C00027D1002606EB860007EB800000F04AFCE1
:1012D000761C382EF6D3234800F044FC2148143005
:1012E00000F040FC1F48283000F03CFC1D483C301A
:1012F00000F038FC1B48503000F034FC19486060A6
:101300001430A06005E02068E96AC06A884200D80D
:101310002560E06A401CE0626864E86AA16988426E
:1013200000D9A06100EB800007EB8000291D00F0D0
:101330003FFC00F069FCE06900280CD02068E96AF5
:10134000C06A884207D208494FF080500860BFF356
:101350004F8FBFF36F8FBDE8F081000024000020A5
:10136000240100208405002004ED00E038B500F0E1
:101370002BFC104CA068C8B90F4800F0F3FB0E48D6
:10138000143000F0EFFB0C482060143060600A4B12
:1013900000202833009003F1500210210A2000F0B1
:1013A00001FFA06010B105A100F0ACFCBDE8384021
:1013B00000F02ABC60000020E8050020546D725146
:1013C0000000000030B4026C0B46002A0BD0C1684C
:1013D0001144C1604468A14201D30168C16030BCBE
:1013E0001846FEF7EDBE30BC70472DE9F041856B25
:1013F000174604460026026C82B1C7B1E068FEF7CA
:10140000DFFEE168206C091AE1602268914202D295
:101410006168081AE060022F16D017E02068A8B9AA
:10142000606801F0EBF90646002060600EE0A068FD
:10143000FEF7C6FE216CA0680844A060616888427F
:1014400004D32068A06001E005B16D1E6D1CA5638A
:101450003046BDE8F08110B5044690F8590058B107
:1014600001280CD002280FD0502080F31188BFF340
:101470004F8FBFF36F8FFEE7206B00F0D9FB204644
:10148000BDE8104000F0D4BB10BD000010484FF480
:101490004061420706D0C01D0D4920F00700411AE7
:1014A000C1F540610B4A00230144C2E90003083939
:1014B000103A21F0070111604B600B600B1AC0E974
:1014C000001393604FF000405360D06070470000FD
:1014D000B80D002088000020144E154CA6F29C4741
:1014E0004FF08058DFF84C9012E000BF00F06CFB2A
:1014F000F068C568281D00F007FB2069401E2061C8
:10150000E068401EE06000F07FFB2846FFF7A3FF85
:10151000E0680028EAD138680128F9D9C9F80080C4
:10152000BFF34F8FBFF36F8FF2E70000C0050020BD
:101530002400002004ED00E070B51D46049C51B16C
:10154000C4F80020C4E90F010121204600F05EFE2E
:1015500084F84C5070BD2460F4E72DE9F0470E4646
:10156000DDE909841746824691009946089DA52227
:10157000206BFEF737FE6FF00301206B01EB870154
:10158000084420F00707780707D0502080F311881F
:10159000BFF34F8FBFF36F8FFEE72218315C82F8E5
:1015A0003410315C11B1401C1028F6D3002684F8A9
:1015B0004360382D00D33725E562C4E91356201D5A
:1015C00000F0DBFA04F1180000F0D7FA2461C5F14D
:1015D00038006462A061666584F858604A465146E6
:1015E000384600F07FFA2060B8F1000F01D0C8F84B
:1015F0000040BDE8F087000030B5114900E0114619
:101600000A688242FBD34B685C18844203D140686D
:1016100018444860084643681C18944209D1084C95
:10162000103C2468A24209D052681A4442600A68F9
:1016300012680260814200D0086030BD0460F9E7A2
:101640008800002070B5002441600B4D006191427C
:1016500006D8D11A8269914206D2011D686807E056
:101660009A4203D2994201D3012403E0011D286864
:1016700000F086FA204670BD6000002010B50446D8
:1016800000F0A2FAA06B28B15FF0000400F0BCFAF1
:10169000204610BD0124F9E730B589B0304D55E042
:1016A0000498002806DADDE90601059A90470498B7
:1016B00000284BDB069C606910B1201D00F024FA65
:1016C00002A800F0B9F8024604980A283ED2DFE8E2
:1016D00000F00505053D263705053D260598A1695D
:1016E000034601442046FFF7ADFF00B3616A204680
:1016F0008847E069012829D1002000900598A16958
:10170000002342181946204601F082F978B950208A
:1017100080F31188BFF34F8FBFF36F8FFEE70598FB
:10172000A06128B1811813462046FFF78BFF0DE01A
:10173000502080F31188BFF34F8FBFF36F8FFEE708
:1017400094F82C0010B9204600F072FA002204A987
:10175000A86800F0ADFE0028A2D109B030BD00009D
:10176000600000202DE9FC410F46054600F0E4FB37
:1017700001A800F061F80446019818B101F0B6F82C
:10178000BDE8FC81224EAFB170680068A8B30027A5
:10179000291B3A46B06800F0C9FA01F0A7F8002802
:1017A000EED11C494FF080500860BFF34F8FBFF35C
:1017B0006F8FE5E7A542EBD801F098F8306827462F
:1017C000C068C468201D00F09FF9E069012810D1AD
:1017D000A0692B4641193A462046FFF733FF40B136
:1017E00000200346014600902A46204601F010F9E9
:1017F00020B1616A20468847C2E707E0502080F3A5
:101800001188BFF34F8FBFF36F8FFEE70127BFE74C
:101810006000002004ED00E006484168096829B135
:101820004168C968C9684968016370474FF0FF3172
:10183000FAE700002400002070B5054600F074FFB0
:10184000064E04463069844203D200F009F80120B4
:1018500000E0002028602046346170BD6000002058
:10186000F8B5194D1FE0C068C4680668201D00F077
:101870004BF9616A20468847E069012813D1A069C5
:101880003044B04206D924616060211D286800F010
:1018900077F908E0002003460146009032462046D2
:1018A00001F0B6F838B1286801680029DBD1696811
:1018B000C5E90010F8BD502080F31188BFF34F8FA9
:1018C000BFF36F8FFEE7000060000020084840680B
:1018D000401C4FF0500080F3118804D0BFF34F8FAD
:1018E000BFF36F8FFEE7BFF34F8FBFF36F8FFEE73E
:1018F00090000020074C2068016841B1C0680021B9
:10190000D0F80000FFF72EFFFFF7C6FEF3E7012136
:101910000020F7E7600000202DE9F041044600F0C8
:1019200053F994F9455004F1240609E0606A48B17E
:10193000304600F0A3FF08B100F048FA6D1E6DB20A
:10194000002DF3DC4FF0FF3684F8456000F05CF9C1
:1019500000F03AF994F9445004F1100709E02069C5
:1019600048B1384600F08AFF08B100F02FFA6D1E2A
:101970006DB2002DF3DC84F84460BDE8F04100F066
:1019800043B900002DE9F0410546002700F0D4FAE4
:10199000314E306808B9FFF779FDF06805424BD148
:1019A000C5B3083568070ED005F00700C0F1080080
:1019B0000544680707D0502080F31188BFF34F8F8C
:1019C000BFF36F8FFEE72DB37068854234D822488D
:1019D000103001460C6801E020460C466168A942BF
:1019E00002D221680029F7D131688C4224D00768DF
:1019F0002168016060680837411B10290FD9601900
:101A0000420708D0502080F31188BFF34F8FBFF3F7
:101A10006F8FFEE710E041606560FFF7EDFD6168E4
:101A20007068401A7060B268904200D2B060F0688E
:101A300001430020C4E9000100F058FF780707D0F7
:101A4000502080F31188BFF34F8FBFF36F8FFEE7F5
:101A50003846BDE8F0810000780000201E24DFF841
:101A60003C900F4E0A254FF4FA774FF6FF7801238A
:101A70004A4621462846FFF78DF93069FFF7E2FA1A
:101A8000C007F4D0B7EB440F03D308EA440408EAD4
:101A9000450501213069FFF7A9FAE8E70008014090
:101AA000000000201E25DFF834800D4E0F244FF477
:101AB00080773B46424629462046FFF76BF930695E
:101AC000FFF7C0FA8007F4D5022C01D36D08640833
:101AD00002213069FFF78AFAEBE70000000C0140B1
:101AE0000000002010B5031F4FF080741C601B1F06
:101AF00021F001011960191F024B0B6014394038A5
:101B00000A6010BDCD180008D0E9013201699A6061
:101B1000D0E901235A604A68824201D182684A6052
:101B2000002202610868401E0860086870470000D3
:101B3000034B036003F15C00086080201060704775
:101B400000070020044B036003F15C0008604FF4C1
:101B500080701060704700005C09002000F026BA19
:101B600000F07DBA00F108014FF0FF32C0E9011228
:101B7000C16001610021016070470021016170476F
:101B800030B50B685A1C02D000F1080202E002696D
:101B900004E02246546825689D42FAD953684B6098
:101BA00099608A60516008610168491C016030BD1C
:101BB00042684A6093688B609368596091600861DD
:101BC0000168491C01607047502080F31188BFF301
:101BD0004F8FBFF36F8F0A494868401C4860012847
:101BE0000CD10848006810F0FF0F07D0502080F398
:101BF0001188BFF34F8FBFF36F8FFEE77047000070
:101C00009000002004ED00E00849486828B1401E1B
:101C1000486001D180F311887047502080F311880B
:101C2000BFF34F8FBFF36F8FFEE7000090000020DF
:101C300070B5002827D0144DA0F108046168E86849
:101C4000014207D1502080F31188BFF34F8FBFF3BB
:101C50006F8FFEE722683AB1502080F31188BFF3FE
:101C60004F8FBFF36F8FFEE78143616000F064F92F
:101C700060686968084468602046FFF7BDFCBDE8FD
:101C8000704000F033BE70BD780000204FF0E020BF
:101C900000210161816105494FF47A720968B1FB45
:101CA000F2F1491E416107210161704720000020C7
:101CB00010B5FEF76FFA114910280ED300F1E0209D
:101CC00090F8F0030A78904207D2502080F31188F0
:101CD000BFF34F8FBFF36F8FFEE709480068896835
:101CE00000F4E060884207D9502080F31188BFF3E8
:101CF0004F8FBFF36F8FFEE710BD000090000020F4
:101D00000CED00E010B5084B002200BF53F8324044
:101D10001CB1521C082AF9D310BD43F8321003EB52
:101D2000C201486010BD0000E400002070B51546F7
:101D30000E460446FFF748FF94F944100020491C62
:101D400001D184F8440094F94510491C01D184F86C
:101D50004500FFF759FFA06B28B92A46314604F128
:101D6000240000F051F82046BDE87040FFF7D4BDD4
:101D700010B5020014D00F48806B38B1502080F3AA
:101D80001188BFF34F8FBFF36F8FFEE700F0D4F8D9
:101D900000211046FFF754FA00F0A8FD002807D1F3
:101DA00005494FF080500860BFF34F8FBFF36F8F2E
:101DB00010BD00002400002004ED00E002498A6A02
:101DC00002604969416070472400002001490120F8
:101DD000486270472400002010B50C4650B10949F4
:101DE00009681831FFF7CCFE2046BDE810400121FC
:101DF000FFF726BA502080F31188BFF34F8FBFF34F
:101E00006F8FFEE72400002070B514460D4668B1C0
:101E10000A4909681831FFF7CBFE0CB14FF0FF35C6
:101E200021462846BDE87040FFF70ABA502080F3EB
:101E30001188BFF34F8FBFF36F8FFEE724000020A0
:101E400070B5194DAA6BF2B141F000410160C46850
:101E50000CB3FFF759FE201DFFF756FEE06AA96993
:101E6000884200D9A861114900EB800001EB800095
:101E7000211DFFF79DFEE06A2968C96A884201D9E1
:101E80000120686270BD502080F31188BFF34F8F2E
:101E9000BFF36F8FFEE7502080F31188BFF34F8FA1
:101EA000BFF36F8FFEE70000240000202401002014
:101EB00030B587B00024039405AA04A903A80494AC
:101EC000FFF736FEDDE903010094CDE901100023A0
:101ED00015A11748059A00F0EEFB164D002868631F
:101EE0001FD000F065FD012809D0401C19D15020F9
:101EF00080F31188BFF34F8FBFF36F8FFEE7502041
:101F000080F31188BFF34F8FBFF36F8F4FF0FF3017
:101F100028630120E8616C6107B0BDE8304000F043
:101F2000EDB807B030BD000049444C45000000004A
:101F3000D9140008240000200248816B491C8163E9
:101F40007047000024000020164810B5816B11B1C5
:101F50000121416210BD002141628169124A01E004
:101F6000B9B1491E01EB810352F82330002BF7D0A1
:101F700001EB810302EB830202F1080453685B6802
:101F80005360A34201D15B685360DA6802608161EB
:101F900010BD502080F31188BFF34F8FBFF36F8FB8
:101FA000FEE70000240000202401002070B50E464A
:101FB000040009D0300E0FD0502080F31188BFF3F9
:101FC0004F8FBFF36F8FFEE7502080F31188BFF370
:101FD0004F8FBFF36F8FFEE7FFF7F6FD256825EA09
:101FE00006002060FFF710FE284670BD0A46014635
:101FF0000023014800F040BD5D1B000870B52020A3
:10200000FFF7C0FC040005D00025201D2560FFF768
:10201000A9FD2577204670BD38B558B1202104466A
:10202000002000912060201DFFF79CFD01202077FB
:10203000204638BD502080F31188BFF34F8FBFF387
:102040006F8FFEE75022EFF3118182F31188BFF307
:102050004F8FBFF36F8F006881F3118870472DE9B0
:10206000F0410027884604000AD05FEA18600FD0CC
:10207000502080F31188BFF34F8FBFF36F8FFEE7BF
:10208000502080F31188BFF34F8FBFF36F8FFEE7AF
:10209000261D04F10C05FFF74FFF2168F06841EAA7
:1020A0000801216017E0D0E9001601F07F425301DA
:1020B000236821F07F4102D40B4203D10AE031EAC8
:1020C000030307D1D20100D50F43216841F000710D
:1020D000FFF7B6FE3046A842E5D12068B84320603D
:1020E00000F004FC2068BDE8F081000013460A46B9
:1020F0000146014800F0C0BC611B00081CB5264920
:1021000008780190FF20087008788DF800009DF88D
:1021100000009DF8002000F0F000904207D0502011
:1021200080F31188BFF34F8FBFF36F8FFEE79DF8E9
:1021300000001A4B00F0500018700720986005E06E
:102140009DF8002052008DF80020401E9DF80020D0
:102150001206F5D49860032807D0502080F3118828
:10216000BFF34F8FBFF36F8FFEE74FF4407098605F
:10217000019808700A48016841F470010160016823
:1021800041F070410160FFF781FD00205860FDF7CC
:10219000CBFF00201CBD000000E400E09000002008
:1021A00020ED00E038B5049D18B153B1CAB181B13A
:1021B00020E0502080F31188BFF34F8FBFF36F8F63
:1021C000FEE7502080F31188BFF34F8FBFF36F8F6E
:1021D000FEE7502080F31188BFF34F8FBFF36F8F5E
:1021E000FEE739B1502080F31188BFF34F8FBFF362
:1021F0006F8FFEE750241C46012384F846302B469F
:102200000094FFF799F9204638BD000070B50D46DF
:10221000040025D0FFF7D8FCD4E90F20216802FB89
:10222000001161600021A1632168A1600A46D4E920
:102230000F01401E00FB0121E16021464FF0FF30FD
:1022400001F8440F487004F110008DB1FFF78AFCCB
:1022500004F12400FFF786FCFFF7D6FC012070BDD7
:10226000502080F31188BFF34F8FBFF36F8FFEE7CD
:1022700021690029F0D000F001FB0028ECD00449CE
:102280004FF080500860BFF34F8FBFF36F8FE3E7CD
:1022900004ED00E02DE9FF4782B01D468A464FF06D
:1022A0000008040003D0BAF1000F08D011E050205C
:1022B00080F31188BFF34F8FBFF36F8FFEE7206C61
:1022C00038B1502080F31188BFF34F8FBFF36F8F69
:1022D000FEE7022D0AD1E06B012807D0502080F3E1
:1022E0001188BFF34F8FBFF36F8FFEE700F00EFA38
:1022F0003F4F4FF000094FF0805648B9049838B16D
:10230000502080F31188BFF34F8FBFF36F8FFEE72C
:10231000FFF75AFCA06BE16B884207D3022D05D072
:102320000498D0B1B8F1000F1AD01EE02A465146E9
:102330002046FFF75AF8616A19B104F1240000F051
:102340009DFA20B13E60BFF34F8FBFF36F8FFFF751
:102350005BFC012006B0BDE8F087FFF755FC22E0EA
:102360006846FFF72BFD4FF00108FFF74DFCFFF724
:10237000E3FDFFF729FC94F94400401C01D184F8E7
:10238000449094F94500401C01D184F84590FFF732
:102390003BFC04A9684600F027F930B12046FFF75E
:1023A000BBFA00F0A3FA0020D4E7FFF70DFCA06B06
:1023B000E16B884213D1FFF727FC04F11000049968
:1023C000FFF70AFD2046FFF7A7FA00F08FFA002872
:1023D0009ED13E60BFF34F8FBFF36F8F98E7FFF73B
:1023E00013FC2046FFF798FA00F080FA90E700000F
:1023F00004ED00E02DE9F0471F46904689460400B1
:1024000003D0B9F1000F08D011E0502080F31188FB
:10241000BFF34F8FBFF36F8FFEE7206C38B15020B2
:1024200080F31188BFF34F8FBFF36F8FFEE7022F4A
:102430000AD1E06B012807D0502080F31188BFF348
:102440004F8FBFF36F8FFEE7FFF732FC5020EFF3A3
:10245000118680F31188BFF34F8FBFF36F8FA06B8E
:10246000E16B884206D3022F04D0002086F3118846
:10247000BDE8F08794F945503A4649462046FEF7B4
:10248000B4FF681C04D06D1C84F845500120EDE7B2
:10249000606A0028FAD004F1240000F0EFF9002867
:1024A000F4D0B8F1000FF1D00121C8F80010EDE729
:1024B0002DE9F747002683B08A46040003D0BAF11D
:1024C000000F08D011E0502080F31188BFF34F8F28
:1024D000BFF36F8FFEE7206C38B1502080F3118876
:1024E000BFF34F8FBFF36F8FFEE700F00FF9DFF8F8
:1024F000F4804FF000094FF0805748B9059838B183
:10250000502080F31188BFF34F8FBFF36F8FFEE72A
:10251000FFF75AFBA56BC5B151462046FEF752FFA7
:102520006D1EA563206950B104F1100000F0A6F9FA
:1025300028B1C8F80070BFF34F8FBFF36F8FFFF75C
:1025400063FB012006B0BDE8F087059808B11EB115
:1025500006E0FFF759FB27E06846FFF72FFC01264E
:10256000FFF752FBFFF7E8FCFFF72EFB94F944005E
:10257000401C01D184F8449094F94500401C01D1DD
:1025800084F84590FFF740FB05A9684600F02CF859
:10259000002820460AD0FFF7BFF900F0A7F920462F
:1025A000FFF76CF80028B3D00020CBE7FFF766F800
:1025B00090B104F124000599FFF70EFC2046FFF7C7
:1025C000ABF900F093F90028A2D1C8F80070BFF36E
:1025D0004F8FBFF36F8F9BE72046FFF79DF900F009
:1025E00085F995E704ED00E02DE9F0410C46050082
:1025F00011D0C4B1FFF7E8FA174B5A696E6820682A
:10260000911B471C17D02F689B6A9F4219D0964296
:1026100017D8012410E0502080F31188BFF34F8FAA
:10262000BFF36F8FFEE7502080F31188BFF34F8F09
:10263000BFF36F8FFEE70024FFF7E6FA2046BDE800
:10264000F081884205D9401A20602846FFF7B6FB82
:10265000F1E700202060DCE7240000202DE9FF5F87
:102660008346DDE90E87994616468A469000FFF7B5
:1026700089F905001CD05C20FFF784F9040014D010
:102680000020256384F85900CDE90240CDE9008798
:102690004B46324651465846FEF75FFF2046FEF74E
:1026A000FDFD012004B0BDE8F09F2846FFF7C0FA09
:1026B0004FF0FF30F6E7F0B585B0DDE90B640A9D19
:1026C000A6B1DCB15C2700972663022684F8596026
:1026D000002604AFCDE90246CDE90057FEF73DFFE5
:1026E0002046FEF7DBFD049805B0F0BD502080F3D6
:1026F0001188BFF34F8FBFF36F8FFEE7502080F339
:102700001188BFF34F8FBFF36F8FFEE70548C16994
:1027100019B1806B18B1002070470120704702206A
:102720007047000024000020014840697047000005
:10273000240000202DE9F0412E4C0027A06B40B171
:10274000206A401C2062606A00B101273846BDE85B
:10275000F0816669761C666113D16068006838B1E3
:10276000502080F31188BFF34F8FBFF36F8FFEE7C8
:102770006068A1686160A060A06A401CA062FFF769
:102780004BF8206BDFF87080864209D360680068E0
:1027900080B16068C068C568686886420DD22063F1
:1027A0002068C06A00EB800158F821000128CAD9CE
:1027B0000127C8E74FF0FF30F1E7281DFFF7A4F924
:1027C000A86A18B105F11800FFF79EF9E86AA16937
:1027D000884200D9A06100EB800108EB8100291D2F
:1027E000FFF7E6F9E86A2168C96A8842CED3012773
:1027F000CCE70000240000202401002070B5040074
:102800004FF0000133D01B4D2868844207D0502080
:1028100080F31188BFF34F8FBFF36F8FFEE7206DFA
:1028200038B1401E2065E36CE26A9A421FD040B185
:102830001DE0502080F31188BFF34F8FBFF36F8FDF
:10284000FEE7201DFFF760F9E06CE062C0F13800A0
:10285000A061E06AA969884200D9A861064900EB35
:10286000800001EB8000211DFFF7A2F9012108463D
:1028700070BD0000240000202401002070B5C06855
:10288000C46854B104F118000646FFF73DF9144D31
:10289000A86B50B13146134815E0502080F31188E1
:1028A000BFF34F8FBFF36F8FFEE7201DFFF72CF9AB
:1028B000E06AA969884200D9A8610B4900EB800051
:1028C00001EB8000211DFFF773F9E06A2968C96AEE
:1028D000884202D90120686270BD002070BD0000EE
:1028E00024000020AC050020240100202DE9F04741
:1028F0002C4D00242746A86B38B1FFF765F9A86B6B
:10290000401EA863A86B40B146E0502080F31188B8
:10291000BFF34F8FBFF36F8FFEE72969224E01206F
:10292000D1B3A6F5916980463068E0B1F068C4681B
:1029300004F11800FFF7E8F8201DFFF7E5F8E06A5A
:10294000A969884200D9A86100EB800109EB8100E8
:10295000211DFFF72DF9E06A2968C96A8842E3D38F
:10296000C5F82480E0E70CB1FEF756FF2C6A4CB1A5
:102970004FEA0806FFF7DEFE00B16E62641EF9D171
:1029800000202862686A38B10849012738070860C2
:10299000BFF34F8FBFF36F8FFFF736F93846BDE8AF
:1029A000F087000024000020AC05002004ED00E0CA
:1029B00010B586B0FEF7DAFC114CA068B8B1002063
:1029C0000390049005AA04A903A8FFF7BBF8DDE96A
:1029D000032102208DE8070000230AA10B48059A75
:1029E000FFF769FEE06010B106B0012010BD502075
:1029F00080F31188BFF34F8FBFF36F8FFEE70000A6
:102A000060000020546D722053766300F5180008B2
:102A10002DE9FF411E46134602000A9D4FF00000BB
:102A200016D0144CA768002F0FD0CDE900130292E6
:102A3000062917DAFFF76AFE02284FF000030FD0CD
:102A400000226946A068FFF725FC04B0BDE8F081CC
:102A5000502080F31188BFF34F8FBFF36F8FFEE7D5
:102A60002A46EEE70023324669463846FFF7C2FCA5
:102A7000EBE70000600000201FB51C466FF001036B
:102A8000CDE90030CDE90212044800232246694610
:102A90008068FFF7AFFC04B010BD000060000020AC
:102AA000DC2A000800000000000000000000000018
:102AB00000000000000200001800000000000000FC
:102AC00000000000000000000000000001020304FC
:102AD000060708090000000001020304646566613E
:102AE000756C745461736B00082B000800000020A3
:102AF0009C000000E60E0008A42B00089C000020AB
:102B00001C1D0000F60E0008000000000000000080
:102B100000000000000000000000000001000000B4
:102B200010000000000000000024F400000000007D
:102B30000000000000000000000000000000000095
:102B40000000000000000000000000000000000085
:102B50000000000000000000000000000000000075
:102B60000000000000000000000000000000000065
:102B70000000000000000000000000000000000055
:102B80000000000000000000000000000000000045
:102B9000000000000000000000000000AAAAAAAA8D
:042BA0000000000031
:04000005080000ED02
:00000001FF
