:020000040800F2
:10000000001E00209D010008730F0008730E0008F9
:10001000710F00082D0200083311000800000000D5
:1000200000000000000000000000000005010008C2
:100030002F0200080000000049010008A50F000879
:10004000B7010008B7010008B7010008B7010008B0
:10005000B7010008B7010008B7010008B7010008A0
:10006000B7010008B7010008B7010008B701000890
:10007000B7010008B7010008B7010008B701000880
:10008000B7010008B7010008B7010008B701000870
:10009000B7010008B7010008B7010008B701000860
:1000A000B701000821100008B7010008B7010008D7
:1000B0002D100008B7010008B7010008B7010008BB
:1000C000B7010008B7010008B7010008B701000830
:1000D000B7010008B7010008B7010008B701000820
:1000E000B7010008B7010008B7010008DFF810D019
:1000F00000F08AF80048004789110008AFF300803B
:10010000001E0020224B19680868B0E8F00F80F349
:100110000988BFF36F8F4FF0000080F311884EF015
:100120000D0E70470000000006480068006880F36C
:10013000088862B661B6BFF34F8FBFF36F8F00DFE1
:1001400000BF00BF08ED00E0EFF30980BFF36F8F41
:100150000F4B1A6820E9F00F106008B54FF05000FF
:1001600080F31188BFF34F8FBFF36F8F01F05EFFF5
:100170004FF0000080F31188BDE808401968086856
:10018000B0E8F00F80F30988BFF36F8F704700BFAE
:1001900024000020EFF305807047000006488047E8
:1001A00006480047FEE7FEE7FEE7FEE7FEE7FEE75C
:1001B000FEE7FEE7FEE7FEE71F100008ED0000087F
:1001C00040EA01039B0703D009E008C9121F08C0D9
:1001D000042AFAD203E011F8013B00F8013B521E59
:1001E000F9D27047D2B201E000F8012B491EFBD2D0
:1001F00070470022F6E710B513460A460446194632
:10020000FFF7F0FF204610BD064C074D06E0E06802
:1002100040F0010394E8070098471034AC42F6D34D
:10022000FFF768FFAC2A0008CC2A0008FEE77047F9
:100230002DE9F84FDFF8B891002409F1040A0AF11A
:10024000040B23460F270BF1040EC9E00125A5403E
:100250002A40AA427DD1674ED1F804C0ACEB060813
:10026000B44532D014DCBCF1030F3AD009DCBCF148
:10027000000F2AD0BCF1010F1CD0BCF1020F31D10C
:100280001DE0BCF1110F17D0BCF1120F2AD119E0FB
:10029000B8F5881F19D006DCB8F5803F15D0B8F541
:1002A000801F1FD111E0B8F5001F0ED0B8F5041F54
:1002B00018D10AE0CB6815E0CB681B1D12E0CB68B3
:1002C00008330FE0CB680C330CE08B682BB1012BAB
:1002D0004FF0080303D0456104E0042302E0056108
:1002E00000E00023FF2A01D8064601E000F10406E1
:1002F0004FEA840501D9A5F12005D6F8008007FA58
:1003000005FC28EA0C0803FA05F548EA0508C6F8D2
:1003100000804D68ED0062D5374DAE6946F00106AC
:10032000AE61AD6924F0030605F001050095334D7B
:1003300006EB050CDCF80850A607360F07FA06F89E
:1003400025EA0805DFF8B880404503D14FF00008E2
:1003500017E044E0DFF8AC80404502D14FF00108DF
:100360000FE0DFF8A480404502D14FF0020808E01A
:10037000DFF89880404502D14FF0030801E04FF0CC
:10038000040808FA06F848EA0508CCF808804D6821
:10039000D9F80060ED034D4601D5164300E09643C1
:1003A0002E604D68DAF80060AD03554601D516435E
:1003B00000E096432E604D68DBF80060ED025D467C
:1003C00001D5164300E096432E604D68DEF80060CC
:1003D000AD02754601D5164300E096432E60641CBD
:1003E0000D682A46E5407FF431AFBDE8F88F000084
:1003F0000004014000001110001002400000014004
:1004000000080140000C01400010014000140140B0
:10041000C26821EA02030A4043EA024101617047CF
:100420000AB1016170470904FBE7000001488068D8
:1004300070470000140000200248816802781144CF
:100440008160704714000020074810B5016841F032
:1004500010010160032000F095F8002000F006F87C
:1004600000F03EF8002010BD0020024000B501461B
:1004700087B00022192000F065F8192000F054F828
:100480001348816941F400618161806905A900F424
:1004900000600690684600F01DF900F03BF90D4938
:1004A0000D4AB0FBF1F10D48491E0260416040F277
:1004B000E7320021C0E90321816000F037FB10B171
:1004C000012007B000BD054800F07AFBF9E7000005
:1004D0000010024040420F00002C0140E4000020C8
:1004E0000F4808B5816941F001018161816901F01E
:1004F00001010091C16941F08051C161C0690022D0
:1005000000F0805000900F21901E00F01BF805486D
:10051000416821F0E06141F00071416008BD0000D8
:100520000010024000000140002809DB00F01F021B
:10053000012191404009800000F1E020C0F8001145
:1005400070470000F0B40E4B1B680C46C3F3022347
:10055000C3F10705042D00D90425191D072901D26F
:10056000002300E0DB1E012606FA05F1491E2140AA
:1005700099409E40761E16403143F0BC00F0DABD33
:100580000CED00E0064900F0070208684FF6FF0393
:10059000184040EA0220034A1043086070470000F8
:1005A0000CED00E00000FA052DE9F0470F460500CC
:1005B00061D0434E306800F00700B84209D230687D
:1005C00020F0070038433060306800F00700B84280
:1005D00051D128683B4C810712D5400703D560688C
:1005E00040F4E06060602878000703D5606840F45C
:1005F000605060606068A96820F0F00008436060A7
:100600002878C00728D06868012810D021680228FF
:1006100010D0890700292EDA616821F00301014317
:100620006160FFF703FF804641F288390DE02168E1
:100630008903EFE78901EDE7FFF7F8FEA0EB08017A
:10064000494502D90320BDE8F0876068696800F079
:100650000C00B0EB810FEFD1306800F00700B8421A
:100660000BD9306820F0070038433060306800F064
:100670000700B84201D00120E5E72878400705D5FA
:100680006068E96820F4E06008436060287800074B
:1006900006D56068296920F4605040EAC1006060B6
:1006A00000F048F86168084AC1F30311515CC84082
:1006B0000649086006480068FFF7D8FE0020C2E738
:1006C0000020024000100240942A00082000002070
:1006D000180000200F2202600C4A536803F0030345
:1006E0004360536803F0F0038360536803F4E063EE
:1006F000C36052684FF4E06303EAD2020261044827
:10070000006800F007000860704700000010024019
:10071000002002400448054900684968044AC1F3C2
:10072000C221515CC84070472000002000100240E8
:10073000A42A000812A185B00FC98DE80F0014A0EB
:10074000144A006804905168134801F00C03042B0C
:1007500010D0082B0ED1C1F38343C9031DF8030049
:100760000AD5516804AAC1F34041515C0A4A50437A
:10077000B0FBF1F005B0704708494843FAE70000C4
:1007800002030405060708090A0B0C0D0E0F1010D2
:10079000010200000010024000127A0000093D0032
:1007A0002DE9F84F040070D02078C04DC00749D023
:1007B0006868C0F38100012807D06868C0F3810031
:1007C000022809D16868C00306D52868800339D596
:1007D00060680028E7D035E06068B0F5803F0BD056
:1007E00010B1B0F5A02F11D0286820F48030286017
:1007F000286820F4802002E0286840F480302860D7
:10080000606890B1FFF712FE06460AE0286840F4DF
:1008100080202860F0E700BFFFF708FE801B6428F7
:1008200073D828688003F7D50CE0FFF7FFFD064674
:1008300005E000BFFFF7FAFD801B6428F0D82868A8
:100840008003F7D420789A4E80074FF001094FF0CB
:10085000000839D5686810F00C0F07D06868C0F33D
:100860008100022809D16868C00306D4286880077F
:1008700014D52069012808D110E02069B0B1C6F86C
:100880000090FFF7D3FD074605E00AE1FFF7CEFD34
:10089000C01B0228C4D828688007F7D5286861697A
:1008A00020F0F80040EAC10028600DE0C6F80080A2
:1008B000FFF7BCFD074604E0FFF7B8FDC01B0228A8
:1008C00023D828688007F7D4207800072CD57948EA
:1008D000A169D9B1C0F80090FFF7A8FD074604E070
:1008E000FFF7A4FDC01B02280FD8686A8007F7D560
:1008F00071484FF4FA510068B0FBF1F0009000BF6E
:100900000098411E0091FAD20EE080E0C0F800800D
:10091000FFF78CFD074604E0FFF788FDC01B0228A7
:1009200075D8686A8007F7D42078400760D5E869F1
:100930000027C00008D4E86940F08050E861E86909
:10094000012700F0805000905C480168C90513D46D
:100950000168834641F480710160FFF767FD8246BC
:1009600006E000BFFFF762FDA0EB0A0064284ED846
:10097000DBF80000C005F5D5E06801280AD008B111
:10098000052813D0286A20F001002862286A20F088
:10099000040002E0286A40F001002862E06841F2A9
:1009A000883B98B1FFF742FD82460BE0286A40F091
:1009B00004002862EEE700BFFFF738FDA0EB0A0154
:1009C00059455AD8286A8007F6D50CE0FFF72EFD66
:1009D000824605E0FFF72AFDA0EB0A0159454CD8F5
:1009E000286A8007F6D41FB1E86920F08050E861DA
:1009F000E06988B36968C1F38101022944D0022803
:100A0000C6F8608004D0FFF711FD044638E034E0FA
:100A1000FFF70CFD074604E0FFF708FDC01B0228A6
:100A20002BD828688001F7D4206AB0F5803F05D123
:100A30006868A16820F4003008436860D4E90801C0
:100A40000843696821F4741108436860C6F860902F
:100A5000FFF7ECFC044606E025E000BFFFF7E6FCEC
:100A6000001B022809D828688001F7D51BE000BFC9
:100A7000FFF7DCFC001B022802D90320BDE8F88F39
:100A800028688001F4D40EE00128F7D06868226A53
:100A900000F48031914204D1616A00F47010884200
:100AA00001D00120EAE70020E8E700000010024042
:100AB00000004242800442422000002000700040BA
:100AC0007047704770B590F83C20012A26D0012469
:100AD00080F83C40022280F83D2003685A689D68F7
:100AE00022F070060A6832435A600D4B02689A423F
:100AF00008D0B2F1804F05D00A4B9A4202D00A4B7F
:100B00009A4204D1496825F080031943916080F826
:100B10003D40002180F83C10084670BD022070BDA9
:100B2000002C0140000400400008004010B5040003
:100B300003D094F83D0010B107E0012010BD002063
:100B400084F83C00204600F01FF8022084F83D00A5
:100B5000211D206800F076FA012084F8460084F810
:100B60003E0084F83F0084F8400084F8410084F897
:100B7000420084F8430084F8440084F8450084F877
:100B80003D00002010BD000008B50068B0F1804FA6
:100B900012D10A48C16941F00101C161C069002256
:100BA00000F00100009011461C20FFF7CBFCBDE8CF
:100BB00008401C20FFF7B8BC08BD00000010024030
:100BC00090F83D10012901D001207047022180F8E2
:100BD0003D100168CA6842F00102CA6000680B4912
:100BE000884208D0B0F1804F05D00949884202D030
:100BF0000849884204D1816801F00701062903D021
:100C0000016841F00101016000207047002C0140A3
:100C1000000400400008004070B5044690F83C0015
:100C2000012817D0012584F83C50022084F83D00AB
:100C30002068826822F0770222F47F42826008688E
:100C4000502830D00DDC20284DD005DC98B310287A
:100C50003BD148E0022070BD302844D0402834D138
:100C600039E0602828D0702806D0B0F5805F2CD0FD
:100C7000B0F5005F29D10AE0CB68D1E901212068F5
:100C800000F016FA2068816841F0770109E0CB682E
:100C9000D1E90121206800F00BFA2068816841F455
:100CA0008041816011E0CA684968206800F012FA4A
:100CB0005021206807E016E0CA684968206800F003
:100CC0001AFA6021206800F0FDF984F83D500020F8
:100CD00084F83C0070BDCA684968206800F0FAF9E1
:100CE00040212068EFE7226801461046EBE7704795
:100CF00070B50446006801694FF00005C9438907D3
:100D000015D4C168C943890711D4E91E01610120C6
:100D10002077206880698007204602D0FFF7E7FF30
:100D200004E000F098F8204600F096F82577206857
:100D30000169C943490717D4C168C943490713D496
:100D40006FF004010161022020772068806910F4AF
:100D5000407F204602D0FFF7CAFF04E000F07BF896
:100D6000204600F079F8257720680169C943090712
:100D700016D4C168C943090712D46FF00801016194
:100D8000042020772068C0698007204602D0FFF742
:100D9000AEFF04E000F05FF8204600F05DF8257734
:100DA00020680169C943C90617D4C168C943C90687
:100DB00013D46FF010010161082020772068C0690A
:100DC00010F4407F204602D0FFF791FF04E000F0CE
:100DD00042F8204600F040F8257720680169C943B1
:100DE000C90708D1C168C943C90704D1891E016177
:100DF000204600F033F820680169C943090609D488
:100E0000C168C943090605D46FF08001016120461D
:100E1000FFF756FE20680169C943490609D4C16835
:100E2000C943490605D46FF040010161204600F036
:100E30001FF820680169C94389060BD4C168C943FA
:100E4000890607D46FF0200101612046BDE870409B
:100E5000FFF737BE70BD7047704700000068034958
:100E6000884201D1FFF7E8BA70470000002C01402A
:100E70007047FEE72DE9F04385B000242048009438
:100E8000019402940394816941F020018161816998
:100E900001F020010491816941F0040181618169BF
:100EA00001F004010491816941F0080181618069C8
:100EB000DFF8508000F0080040F201150490002295
:100EC00029464046FFF7ACFADFF83C90002229465D
:100ED0004846FFF7A5FA0227012603970095CDE9BA
:100EE000016469464046FFF7A3F903970095CDE9F1
:100EF000016469464846FFF79BF905B0BDE8F083F9
:100F00000010024000080140000C014010B586B0FE
:100F100000241548009401940294039404944FF023
:100F2000804105940160114942F210720968B1FBD9
:100F3000F2F1491EC0E901140921C0E903148461DA
:100F4000FFF7F4FD4FF48050009069460648FFF724
:100F500063FE049404A904480594FFF7B3FD024816
:100F6000FFF72EFE06B010BD9C00002020000020E0
:100F7000FEE770472DE9F04117460C4605461E4630
:100F8000012219463846FFF74BFA284600F0F2F8DE
:100F9000002231463846FFF743FA601BBDE8F041B6
:100FA00000F0E8B810B5502080F31188BFF34F8FE0
:100FB000BFF36F8F01F088FB18B104494FF08050E8
:100FC0000860002080F3118810BD000004ED00E0EF
:100FD00030B58FB028216846FFF70BF914210AA815
:100FE000FFF707F901210804CDE90010002402945D
:100FF00002250491CDE907504FF4E01009906846AE
:10100000FFF7CEFB0F20CDE90A056802CDE90C40C1
:1010100002210AA80E94FFF7C7FA0FB030BD70473F
:101020000148FFF765BE0000E400002003480168A6
:10103000491C01600248FFF75BBE00000000002071
:101040009C000020F0B50268164B174C174D4FF06E
:101050008047984205D0B84203D0A04201D0A842B0
:1010600003D122F070064A683243984205D0B84254
:1010700003D0A04201D0A84203D122F44074CA6830
:1010800022434C6922F08002224302608A68C262D5
:101090000A688262984201D10969016301214161B4
:1010A000F0BD0000002C014000040040000800409A
:1010B00010B5846842EA032224F47F440A432243A1
:1010C000826010BD826822F070020A4342F007017C
:1010D0008160704710B5036A046A24F00104046259
:1010E000846924F0F00444EA021423F00A020A435B
:1010F0008461026210BD10B5036A23F0100303621D
:101100008369046A23F4704343EA023224F0A003A3
:1011100043EA01118261016210BD10B500F098FD33
:10112000002805D0D0E90021BDE81040084610474E
:1011300010BDFEE70907090E002804DB00F1E020DE
:1011400080F80014704700F00F0000F1E02080F8F4
:10115000141D704702E008C8121F08C1002AFAD106
:1011600070477047002001E001C1121F002AFBD127
:1011700070470000034A116813685B1A8342FBD36F
:101180007047000000000020FFF75EF9FFF720FF26
:10119000FFF770FEFFF7BAFE00F034F8144D134A63
:1011A0002946144800F06AF8134C144E002260607F
:1011B0003146104800F062F8A06000232A46012161
:1011C0000F4800F0ADF8E0600023324601210C48E2
:1011D00000F0A6F820610F21E06800F0E3F80F218D
:1011E000206900F0DFF800F029F8FEE7702A000817
:1011F00000080140751C000800000020000C0140A0
:10120000A91C0008EFF3058058B9EFF3108040B92E
:1012100009490868022801D030B109E0EFF31180D4
:1012200030B16FF005007047012008600020704762
:101230004FF0FF30704700007400002010B5EFF34E
:10124000058060B9EFF3108048B90B49086802289F
:1012500002D0012806D00BE0EFF3118040B16FF00F
:10126000050010BD0220086000F094FE002010BDB3
:101270004FF0FF3010BD000074000020F0B585B0C5
:101280004FEA01034FF00004EFF305810394A1BB83
:10129000EFF3108189BB21490968022902D1EFF3DC
:1012A000118151BB48B3802618218DF8104004AD40
:1012B00042B3176807B13D4697691FB139467F1E93
:1012C000382F02D21779FF0702D0002005B0F0BDF9
:1012D000576907B1BE08D2F808C0BCF1000F0DD0A5
:1012E000D4685C2C18D312693AB137B18DE8061076
:1012F0003246294601F0A9F903900DE0D7685FB99D
:1013000012694AB903AACDE90012B2B2294601F026
:101310006FF9012800D003940398D7E774000020E8
:101320002DE9FC411C461746884606464FF000054D
:10133000EFF3058078BBEFF3108060BB17480068BF
:10134000022802D1EFF3118028BB26B3082000F059
:1013500013FC03001FD0B8F1000FC3E9006711D0E0
:1013600001220F4E00208CB1216801B10846A1680E
:1013700051B1E468302C0ED3CDE90061012101F0B8
:10138000FBFA07E00022ECE7E16821B901210096B1
:1013900001F0D8FA05462846BDE8FC81740000201B
:1013A0001B11000808B5EFF305824AB9EFF310826C
:1013B00032B90E4A1268022A05D1EFF3118212B136
:1013C0006FF0050008BD58B10022134600920A468E
:1013D000042101F019FB012805D06FF0020008BDBF
:1013E0006FF0030008BD002008BD0000740000205D
:1013F0002DE9F041134C0F46054666692068001D33
:1014000000F056FC681C07D137B12168BDE8F041F7
:101410000D48091D00F09CBC20683544B54245606C
:10142000216805D2A068BDE8F041091D00F078BC34
:101430006068091D00F074FC206B854200D22563B2
:10144000BDE8F081240000201C0600202DE9F041B9
:10145000054600F089FC2D4C2069401C2061206865
:101460002B4F10B1E06930B32BE0256020690128D3
:1014700027D1002606EB860007EB800000F042FC37
:10148000761C382EF6D3234800F03CFC214814305B
:1014900000F038FC1F48283000F034FC1D483C3078
:1014A00000F030FC1B48503000F02CFC1948606004
:1014B0001430A06005E02068E96AC06A884200D85C
:1014C0002560E06A401CE0626864E86AA1698842BD
:1014D00000D9A06100EB800007EB8000291D00F01F
:1014E00037FC00F061FCE06900280CD02068E96A54
:1014F000C06A884207D208494FF080500860BFF3A5
:101500004F8FBFF36F8FBDE8F081000024000020F3
:101510006C010020CC05002004ED00E038B500F09F
:1015200023FC104CA068C8B90F4800F0EBFB0E4834
:10153000143000F0E7FB0C482060143060600A4B68
:1015400000202833009003F1500210210A2000F0FF
:10155000F3FDA06010B105A100F0A4FCBDE8384087
:1015600000F022BC6000002030060020546D725153
:101570000000000030B4026C0B46002A0BD0C1689A
:101580001144C1604468A14201D30168C16030BC0C
:101590001846FEF715BE30BC70472DE9F041856B4B
:1015A000174604460026026C82B1C7B1E068FEF718
:1015B00007FEE168206C091AE1602268914202D2BC
:1015C0006168081AE060022F16D017E02068A8B9F9
:1015D000606801F0DDF80646002060600EE0A0685B
:1015E000FEF7EEFD216CA0680844A06061688842A7
:1015F00004D32068A06001E005B16D1E6D1CA563D9
:101600003046BDE8F08110B5044690F8590058B155
:1016100001280CD002280FD0502080F31188BFF38E
:101620004F8FBFF36F8FFEE7206B00F0D1FB20469A
:10163000BDE8104000F0CCBB10BD000010484FF4D6
:101640004061420706D0C01D0D4920F00700411A35
:10165000C1F540610B4A00230144C2E90003083987
:10166000103A21F0070111604B600B600B1AC0E9C2
:10167000001393604FF000405360D060704700004B
:10168000000E002088000020144E154CA6F29C4746
:101690004FF08058DFF84C9012E000BF00F064FB80
:1016A000F068C568281D00F003FB2069401E20611A
:1016B000E068401EE06000F077FB2846FFF7A3FFDC
:1016C000E0680028EAD138680128F9D9C9F8008013
:1016D000BFF34F8FBFF36F8FF2E7000008060020C3
:1016E0002400002004ED00E070B51D46049C51B1BB
:1016F000C4F80020C4E90F010121204600F050FD8C
:1017000084F84C5070BD2460F4E72DE9F0470E4694
:10171000DDE909841746824691009946089DA52275
:10172000206BFEF75FFD6FF00301206B01EB87017B
:10173000084420F00707780707D0502080F311886D
:10174000BFF34F8FBFF36F8FFEE72218315C82F833
:101750003410315C11B1401C1028F6D3002684F8F7
:101760004360382D00D33725E562C4E91356201DA8
:1017700000F0D3FA04F1180000F0CFFA2461C5F1AB
:1017800038006462A061666584F858604A46514634
:10179000384600F077FA2060B8F1000F01D0C8F8A1
:1017A0000040BDE8F0872DE9F0471E46DDE90894CA
:1017B00017460D0080460ED0002C14D0FFF7AEFE69
:1017C000C4F80080C4E90657C4E90869201DBDE8D3
:1017D000F04700F0A2BA502080F31188BFF34F8F7A
:1017E000BFF36F8FFEE7BDE8F087000030B5114909
:1017F00000E011460A688242FBD34B685C188442C1
:1018000003D1406818444860084643681C18944255
:1018100009D1084C103C2468A24209D052681A44ED
:1018200042600A6812680260814200D0086030BDE0
:101830000460F9E78800002070B5002441600B4D7A
:101840000061914206D8D11A8269914206D2011DE7
:10185000686807E09A4203D2994201D3012403E069
:10186000011D286800F05CFA204670BD6000002071
:1018700010B5044600F078FAA06B28B15FF00004C0
:1018800000F092FA204610BD0124F9E730B589B086
:10189000304D55E00498002806DADDE90601059A86
:1018A0009047049800284BDB069C606910B1201D0E
:1018B00000F0FEF902A800F0B9F8024604980A28E0
:1018C0003ED2DFE800F00505053D263705053D263B
:1018D0000598A169034601442046FFF7ADFF00B318
:1018E000616A20468847E069012829D100200090DC
:1018F0000598A169002342181946204601F084F892
:1019000078B9502080F31188BFF34F8FBFF36F8FEA
:10191000FEE70598A06128B1811813462046FFF71D
:101920008BFF0DE0502080F31188BFF34F8FBFF382
:101930006F8FFEE794F82C0010B9204600F048FAAB
:10194000002204A9A86800F07DFD0028A2D109B0FA
:1019500030BD0000600000202DE9FC410F46054627
:1019600000F05CFB01A800F061F80446019818B192
:1019700000F086FFBDE8FC81224EAFB170680068C0
:10198000A8B30027291B3A46B06800F09FFA00F080
:1019900077FF0028EED11C494FF080500860BFF35C
:1019A0004F8FBFF36F8FE5E7A542EBD800F068FFDC
:1019B00030682746C068C468201D00F079F9E069E6
:1019C000012810D1A0692B4641193A462046FFF75D
:1019D00033FF40B100200346014600902A462046CE
:1019E00001F012F820B1616A20468847C2E707E09B
:1019F000502080F31188BFF34F8FBFF36F8FFEE746
:101A00000127BFE76000002004ED00E006484168C0
:101A1000096829B14168C968C968496801637047A4
:101A20004FF0FF31FAE700002400002070B50546B2
:101A300000F044FE064E04463069844203D200F0B2
:101A400009F8012000E0002028602046346170BDC4
:101A500060000020F8B5194D1FE0C068C468066832
:101A6000201D00F025F9616A20468847E0690128B9
:101A700013D1A0693044B04206D924616060211DB1
:101A8000286800F04DF908E0002003460146009068
:101A90003246204600F0B8FF38B1286801680029B6
:101AA000DBD16968C5E90010F8BD502080F31188CA
:101AB000BFF34F8FBFF36F8FFEE700006000002081
:101AC00008484068401C4FF0500080F3118804D053
:101AD000BFF34F8FBFF36F8FFEE7BFF34F8FBFF39F
:101AE0006F8FFEE790000020074C2068016841B12D
:101AF000C0680021D0F80000FFF72EFFFFF7C6FEF8
:101B0000F3E701210020F7E7600000202DE9F04114
:101B1000044600F029F994F9455004F1240609E03F
:101B2000606A48B1304600F073FE08B100F0F8F981
:101B30006D1E6DB2002DF3DC4FF0FF3684F845606A
:101B400000F032F900F010F994F9445004F1100754
:101B500009E0206948B1384600F05AFE08B100F0AB
:101B6000DFF96D1E6DB2002DF3DC84F84460BDE832
:101B7000F04100F019B900002DE9F04105460027B9
:101B800000F04CFA314E306808B9FFF757FDF068A5
:101B900005424BD1C5B3083568070ED005F00700E4
:101BA000C0F108000544680707D0502080F3118871
:101BB000BFF34F8FBFF36F8FFEE72DB37068854281
:101BC00034D82248103001460C6801E020460C460B
:101BD0006168A94202D221680029F7D131688C429C
:101BE00024D007682168016060680837411B10290C
:101BF0000FD96019420708D0502080F31188BFF335
:101C00004F8FBFF36F8FFEE710E041606560FFF715
:101C1000EDFD61687068401A7060B268904200D251
:101C2000B060F06801430020C4E9000100F028FE24
:101C3000780707D0502080F31188BFF34F8FBFF390
:101C40006F8FFEE73846BDE8F08100007800002085
:101C500010B5040006D000F087F8246A00F0A4F85C
:101C6000204610BD502080F31188BFF34F8FBFF383
:101C70006F8FFEE70446012322461E210F20FFF747
:101C800079F9F8E710B5031F4FF080741C601B1F33
:101C900021F001011960191F024B0B601439403803
:101CA0000A6010BDC11A00084FF48071FEF7B0BB86
:101CB000D0E9013201699A60D0E901235A604A688B
:101CC000824201D182684A60002202610868401E97
:101CD0000860086870470000034B036003F15C0074
:101CE000086080201060704748070020044B0360A4
:101CF00003F15C0008604FF48070106070470000D2
:101D0000A409002000F108014FF0FF32C0E90112E0
:101D1000C1600161002101607047002101617047CD
:101D200030B50B685A1C02D000F1080202E00269CB
:101D300004E02246546825689D42FAD953684B60F6
:101D400099608A60516008610168491C016030BD7A
:101D500042684A6093688B6093685960916008613B
:101D60000168491C01607047502080F31188BFF35F
:101D70004F8FBFF36F8F0A494868401C48600128A5
:101D80000CD10848006810F0FF0F07D0502080F3F6
:101D90001188BFF34F8FBFF36F8FFEE770470000CE
:101DA0009000002004ED00E00849486828B1401E7A
:101DB000486001D180F311887047502080F311886A
:101DC000BFF34F8FBFF36F8FFEE70000900000203E
:101DD00070B5002827D0144DA0F108046168E868A8
:101DE000014207D1502080F31188BFF34F8FBFF31A
:101DF0006F8FFEE722683AB1502080F31188BFF35D
:101E00004F8FBFF36F8FFEE78143616000F006F9EB
:101E100060686968084468602046FFF7E7FCBDE831
:101E2000704000F02DBD70BD780000204FF0E02024
:101E300000210161816105494FF47A720968B1FBA3
:101E4000F2F1491E41610721016170472000002025
:101E500010B5FEF79FF9114910280ED300F1E020CC
:101E600090F8F0030A78904207D2502080F311884E
:101E7000BFF34F8FBFF36F8FFEE709480068896893
:101E800000F4E060884207D9502080F31188BFF346
:101E90004F8FBFF36F8FFEE710BD00009000002052
:101EA0000CED00E010B5084B002200BF53F83240A3
:101EB0001CB1521C082AF9D310BD43F8321003EBB1
:101EC000C201486010BD00002C01002070B515460D
:101ED0000E460446FFF748FF94F944100020491CC1
:101EE00001D184F8440094F94510491C01D184F8CB
:101EF0004500FFF759FFA06B28B92A46314604F187
:101F0000240000F02BF82046BDE87040FFF7FEBD2E
:101F100002498A6A026049694160704724000020D2
:101F200001490120486270472400002010B50C468A
:101F300050B1094909681831FFF7F2FE2046BDE8A3
:101F400010400121FFF754BA502080F31188BFF3ED
:101F50004F8FBFF36F8FFEE72400002070B514464B
:101F60000D4668B10A4909681831FFF7F1FE0CB156
:101F70004FF0FF3521462846BDE87040FFF738BADC
:101F8000502080F31188BFF34F8FBFF36F8FFEE7B0
:101F90002400002030B587B00024039405AA04A9CA
:101FA00003A80494FFF798FEDDE903010094CDE94E
:101FB0000110002315A11748059A00F046FB164DA5
:101FC000002868631FD000F0EFFC012809D0401CF6
:101FD00019D1502080F31188BFF34F8FBFF36F8F5B
:101FE000FEE7502080F31188BFF34F8FBFF36F8F50
:101FF0004FF0FF3028630120E8616C6107B0BDE855
:10200000304000F045B807B030BD000049444C45B1
:102010000000000089160008240000200248816B9F
:10202000491C81637047000024000020164810B549
:10203000816B11B10121416210BD002141628169B2
:10204000124A01E0B9B1491E01EB810352F8233075
:10205000002BF7D001EB810302EB830202F10804AD
:1020600053685B685360A34201D15B685360DA68D0
:102070000260816110BD502080F31188BFF34F8F43
:10208000BFF36F8FFEE70000240000206C010020EA
:102090001CB5264908780190FF20087008788DF853
:1020A00000009DF800009DF8002000F0F000904234
:1020B00007D0502080F31188BFF34F8FBFF36F8F8D
:1020C000FEE79DF800001A4B00F050001870072042
:1020D000986005E09DF8002052008DF80020401E19
:1020E0009DF800201206F5D49860032807D05020F0
:1020F00080F31188BFF34F8FBFF36F8FFEE74FF46C
:1021000040709860019808700A48016841F47001B5
:102110000160016841F070410160FFF787FE002017
:102120005860FEF701F800201CBD000000E400E04C
:102130009000002020ED00E038B5049D18B153B1A7
:10214000CAB181B120E0502080F31188BFF34F8FD6
:10215000BFF36F8FFEE7502080F31188BFF34F8FDE
:10216000BFF36F8FFEE7502080F31188BFF34F8FCE
:10217000BFF36F8FFEE739B1502080F31188BFF3B2
:102180004F8FBFF36F8FFEE750241C46012384F866
:1021900046302B460094FFF7A7FA204638BD0000D2
:1021A00070B50D46040025D0FFF7DEFDD4E90F2001
:1021B000216802FB001161600021A1632168A16018
:1021C0000A46D4E90F01401E00FB0121E1602146CF
:1021D0004FF0FF3001F8440F487004F110008DB14A
:1021E000FFF790FD04F12400FFF78CFDFFF7DCFD05
:1021F000012070BD502080F31188BFF34F8FBFF3D3
:102200006F8FFEE721690029F0D000F001FB002864
:10221000ECD004494FF080500860BFF34F8FBFF3FC
:102220006F8FE3E704ED00E02DE9FF4782B01D4624
:102230008A464FF00008040003D0BAF1000F08D01E
:1022400011E0502080F31188BFF34F8FBFF36F8FE1
:10225000FEE7206C38B1502080F31188BFF34F8F18
:10226000BFF36F8FFEE7022D0AD1E06B012807D084
:10227000502080F31188BFF34F8FBFF36F8FFEE7BD
:1022800000F00EFA3F4F4FF000094FF0805648B96A
:10229000049838B1502080F31188BFF34F8FBFF3FB
:1022A0006F8FFEE7FFF760FDA06BE16B884207D3FD
:1022B000022D05D00498D0B1B8F1000F1AD01EE05D
:1022C0002A4651462046FFF768F9616A19B104F1C0
:1022D000240000F09DFA20B13E60BFF34F8FBFF3A2
:1022E0006F8FFFF761FD012006B0BDE8F087FFF7B3
:1022F0005BFD22E06846FFF70BFE4FF00108FFF799
:1023000053FDFFF78BFEFFF72FFD94F94400401CAF
:1023100001D184F8449094F94500401C01D184F81F
:102320004590FFF741FD04A9684600F027F930B158
:102330002046FFF7EBFB00F0A3FA0020D4E7FFF7FD
:1023400013FDA06BE16B884213D1FFF72DFD04F163
:1023500010000499FFF7EAFD2046FFF7D7FB00F0D5
:102360008FFA00289ED13E60BFF34F8FBFF36F8F6F
:1023700098E7FFF719FD2046FFF7C8FB00F080FA49
:1023800090E7000004ED00E02DE9F0471F4690467D
:102390008946040003D0B9F1000F08D011E05020A5
:1023A00080F31188BFF34F8FBFF36F8FFEE7206C70
:1023B00038B1502080F31188BFF34F8FBFF36F8F78
:1023C000FEE7022F0AD1E06B012807D0502080F3EE
:1023D0001188BFF34F8FBFF36F8FFEE7FFF738FD14
:1023E0005020EFF3118680F31188BFF34F8FBFF3B6
:1023F0006F8FA06BE16B884206D3022F04D00020C0
:1024000086F31188BDE8F08794F945503A4649466D
:102410002046FFF7C2F8681C04D06D1C84F84550B4
:102420000120EDE7606A0028FAD004F1240000F0F2
:10243000EFF90028F4D0B8F1000FF1D00121C8F86D
:102440000010EDE72DE9F747002683B08A46040027
:1024500003D0BAF1000F08D011E0502080F31188AA
:10246000BFF34F8FBFF36F8FFEE7206C38B1502062
:1024700080F31188BFF34F8FBFF36F8FFEE700F03B
:102480000FF9DFF8F4804FF000094FF0805748B99A
:10249000059838B1502080F31188BFF34F8FBFF3F8
:1024A0006F8FFEE7FFF760FCA56BC5B15146204674
:1024B000FFF760F86D1EA563206950B104F11000AC
:1024C00000F0A6F928B1C8F80070BFF34F8FBFF332
:1024D0006F8FFFF769FC012006B0BDE8F087059813
:1024E00008B11EB106E0FFF75FFC27E06846FFF782
:1024F0000FFD0126FFF758FCFFF790FDFFF734FCB6
:1025000094F94400401C01D184F8449094F94500AA
:10251000401C01D184F84590FFF746FC05A96846A8
:1025200000F02CF8002820460AD0FFF7EFFA00F060
:10253000A7F92046FFF79CF90028B3D00020CBE78D
:10254000FFF796F990B104F124000599FFF7EEFC2E
:102550002046FFF7DBFA00F093F90028A2D1C8F873
:102560000070BFF34F8FBFF36F8F9BE72046FFF7DD
:10257000CDFA00F085F995E704ED00E02DE9F04192
:102580000C46050011D0C4B1FFF7EEFB174B5A699A
:102590006E682068911B471C17D02F689B6A9F426A
:1025A00019D0964217D8012410E0502080F31188EA
:1025B000BFF34F8FBFF36F8FFEE7502080F311887A
:1025C000BFF34F8FBFF36F8FFEE70024FFF7ECFBE5
:1025D0002046BDE8F081884205D9401A206028468F
:1025E000FFF796FCF1E700202060DCE724000020E4
:1025F0002DE9FF5F8346DDE90E87994616468A4638
:102600009000FFF7B9FA05001CD05C20FFF7B4FA80
:10261000040014D00020256384F85900CDE902405D
:10262000CDE900874B46324651465846FFF76DF8D4
:102630002046FEF70BFF012004B0BDE8F09F2846BE
:10264000FFF7C6FB4FF0FF30F6E7F0B585B0DDE9E8
:102650000B640A9DA6B1DCB15C27009726630226B5
:1026600084F85960002604AFCDE90246CDE9005751
:10267000FFF74BF82046FEF7E9FE049805B0F0BDE1
:10268000502080F31188BFF34F8FBFF36F8FFEE7A9
:10269000502080F31188BFF34F8FBFF36F8FFEE799
:1026A0000548C16919B1806B18B10020704701203D
:1026B0007047022070470000240000200148406954
:1026C00070470000240000202DE9F0412E4C002727
:1026D000A06B40B1206A401C2062606A00B10127F3
:1026E0003846BDE8F0816669761C666113D1606882
:1026F000006838B1502080F31188BFF34F8FBFF3CB
:102700006F8FFEE76068A1686160A060A06A401CEE
:10271000A062FFF77BF9206BDFF87080864209D357
:102720006068006880B16068C068C5686868864293
:102730000DD220632068C06A00EB800158F82100A8
:102740000128CAD90127C8E74FF0FF30F1E7281D5B
:10275000FFF7AEFAA86A18B105F11800FFF7A8FA5A
:10276000E86AA169884200D9A06100EB800108EB0A
:102770008100291DFFF7ECFAE86A2168C96A8842DE
:10278000CED30127CCE70000240000206C010020FC
:1027900070B504004FF0000133D01B4D286884420F
:1027A00007D0502080F31188BFF34F8FBFF36F8F96
:1027B000FEE7206D38B1401E2065E36CE26A9A4264
:1027C0001FD040B11DE0502080F31188BFF34F8F20
:1027D000BFF36F8FFEE7201DFFF76AFAE06CE0623F
:1027E000C0F13800A061E06AA969884200D9A861F7
:1027F000064900EB800001EB8000211DFFF7A8FADD
:102800000121084670BD0000240000206C0100205A
:1028100070B5C068C46854B104F118000646FFF7EB
:1028200047FA144DA86B50B13146134815E05020BB
:1028300080F31188BFF34F8FBFF36F8FFEE7201D2A
:10284000FFF736FAE06AA969884200D9A8610B4906
:1028500000EB800001EB8000211DFFF779FAE06AB0
:102860002968C96A884202D90120686270BD0020C7
:1028700070BD000024000020F40500206C01002041
:102880002DE9F0472C4D00242746A86B38B1FFF7FF
:102890006BFAA86B401EA863A86B40B146E05020BD
:1028A00080F31188BFF34F8FBFF36F8FFEE7296965
:1028B000224E0120D1B3A6F5916980463068E0B17F
:1028C000F068C46804F11800FFF7F2F9201DFFF763
:1028D000EFF9E06AA969884200D9A86100EB80019C
:1028E00009EB8100211DFFF733FAE06A2968C96A04
:1028F0008842E3D3C5F82480E0E70CB1FFF786F8FF
:102900002C6A4CB14FEA0806FFF7DEFE00B16E629A
:10291000641EF9D100202862686A38B1084901278D
:1029200038070860BFF34F8FBFF36F8FFFF73CFA94
:102930003846BDE8F087000024000020F4050020A0
:1029400004ED00E02DE9FC4781461E461746884607
:1029500030200A9DFFF710F904000AD0CDE9005499
:1029600033463A4641464846FEF71DFF002084F8AC
:102970002C002046BDE8FC877CB53026DDE90654F6
:10298000009644B1CDE90054FEF70DFF012084F814
:102990002C0020467CBD502080F31188BFF34F8F60
:1029A000BFF36F8FFEE7000010B586B0FEF7B6FDEF
:1029B000114CA068B8B100200390049005AA04A9A6
:1029C00003A8FFF793F9DDE9032102208DE8070052
:1029D00000230AA10B48059AFFF737FEE06010B10B
:1029E00006B0012010BD502080F31188BFF34F8F37
:1029F000BFF36F8FFEE7000060000020546D72206F
:102A000053766300E91A00082DE9FF411E4613467C
:102A100002000A9D4FF0000016D0144CA768002F4A
:102A20000FD0CDE900130292062917DAFFF738FE1E
:102A300002284FF000030FD000226946A068FFF77C
:102A4000F3FB04B0BDE8F081502080F31188BFF3A0
:102A50004F8FBFF36F8FFEE72A46EEE70023324623
:102A600069463846FFF790FCEBE700006000002065
:102A70000000000000000000000000000000000056
:102A80000000000000000000200000000000000026
:102A9000000000000000000000000000010203042C
:102AA000060708090000000001020304CC2A000800
:102AB000000000209C00000054110008682B000852
:102AC0009C000020641D000064110008000000004C
:102AD00000000000000000000000000000000000F6
:102AE0000100000010000000000000000024F400BD
:102AF00000000000000000000000000000000000D6
:102B000000000000000000000000000000000000C5
:102B100000000000000000000000000000000000B5
:102B200000000000000000000000000000000000A5
:102B30000000000000000000000000000000000095
:102B40000000000000000000000000000000000085
:102B50000000000000000000000000000000000075
:082B6000AAAAAAAA00000000C5
:04000005080000ED02
:00000001FF
