:020000040800F2
:10000000F01D00209D0100082B0F00082B0E00089A
:10001000290F00082D020008D3100008000000007E
:1000200000000000000000000000000005010008C2
:100030002F02000800000000490100085D0F0008C1
:10004000B7010008B7010008B7010008B7010008B0
:10005000B7010008B7010008B7010008B7010008A0
:10006000B7010008B7010008B7010008B701000890
:10007000B7010008B7010008B7010008B701000880
:10008000B7010008B7010008B7010008B701000870
:10009000B7010008B7010008B7010008B701000860
:1000A000B7010008D90F0008B7010008B701000820
:1000B000E50F0008B7010008B7010008B701000804
:1000C000B7010008B7010008B7010008B701000830
:1000D000B7010008B7010008B7010008B701000820
:1000E000B7010008B7010008B7010008DFF810D019
:1000F00000F08AF80048004729110008AFF300809B
:10010000F01D0020224B19680868B0E8F00F80F35A
:100110000988BFF36F8F4FF0000080F311884EF015
:100120000D0E70470000000006480068006880F36C
:10013000088862B661B6BFF34F8FBFF36F8F00DFE1
:1001400000BF00BF08ED00E0EFF30980BFF36F8F41
:100150000F4B1A6820E9F00F106008B54FF05000FF
:1001600080F31188BFF34F8FBFF36F8F01F086FECE
:100170004FF0000080F31188BDE808401968086856
:10018000B0E8F00F80F30988BFF36F8F704700BFAE
:1001900014000020EFF305807047000006488047F8
:1001A00006480047FEE7FEE7FEE7FEE7FEE7FEE75C
:1001B000FEE7FEE7FEE7FEE7D70F0008ED000008C8
:1001C00040EA01039B0703D009E008C9121F08C0D9
:1001D000042AFAD203E011F8013B00F8013B521E59
:1001E000F9D27047D2B201E000F8012B491EFBD2D0
:1001F00070470022F6E710B513460A460446194632
:10020000FFF7F0FF204610BD064C074D06E0E06802
:1002100040F0010394E8070098471034AC42F6D34D
:10022000FFF768FF7428000894280008FEE770476D
:100230002DE9F84FDFF8B891002409F1040A0AF11A
:10024000040B23460F270BF1040EC9E00125A5403E
:100250002A40AA427DD1674ED1F804C0ACEB060813
:10026000B44532D014DCBCF1030F3AD009DCBCF148
:10027000000F2AD0BCF1010F1CD0BCF1020F31D10C
:100280001DE0BCF1110F17D0BCF1120F2AD119E0FB
:10029000B8F5881F19D006DCB8F5803F15D0B8F541
:1002A000801F1FD111E0B8F5001F0ED0B8F5041F54
:1002B00018D10AE0CB6815E0CB681B1D12E0CB68B3
:1002C00008330FE0CB680C330CE08B682BB1012BAB
:1002D0004FF0080303D0456104E0042302E0056108
:1002E00000E00023FF2A01D8064601E000F10406E1
:1002F0004FEA840501D9A5F12005D6F8008007FA58
:1003000005FC28EA0C0803FA05F548EA0508C6F8D2
:1003100000804D68ED0062D5374DAE6946F00106AC
:10032000AE61AD6924F0030605F001050095334D7B
:1003300006EB050CDCF80850A607360F07FA06F89E
:1003400025EA0805DFF8B880404503D14FF00008E2
:1003500017E044E0DFF8AC80404502D14FF00108DF
:100360000FE0DFF8A480404502D14FF0020808E01A
:10037000DFF89880404502D14FF0030801E04FF0CC
:10038000040808FA06F848EA0508CCF808804D6821
:10039000D9F80060ED034D4601D5164300E09643C1
:1003A0002E604D68DAF80060AD03554601D516435E
:1003B00000E096432E604D68DBF80060ED025D467C
:1003C00001D5164300E096432E604D68DEF80060CC
:1003D000AD02754601D5164300E096432E60641CBD
:1003E0000D682A46E5407FF431AFBDE8F88F000084
:1003F0000004014000001110001002400000014004
:1004000000080140000C01400010014000140140B0
:100410000AB1016170470904FBE7000001488068E8
:1004200070470000040000200248816802781144EF
:100430008160704704000020074810B5016841F052
:1004400010010160032000F095F8002000F006F88C
:1004500000F03EF8002010BD0020024000B501462B
:1004600087B00022192000F065F8192000F054F838
:100470001348816941F400618161806905A900F434
:1004800000600690684600F01DF900F03BF90D4948
:100490000D4AB0FBF1F10D48491E0260416040F287
:1004A000E7320021C0E90321816000F037FB10B181
:1004B000012007B000BD054800F05EFBF9E7000031
:1004C0000010024040420F00002C0140D4000020E8
:1004D0000F4808B5816941F001018161816901F02E
:1004E00001010091C16941F08051C161C0690022E0
:1004F00000F0805000900F21901E00F01BF805487E
:10050000416821F0E06141F00071416008BD0000E8
:100510000010024000000140002809DB00F01F022B
:10052000012191404009800000F1E020C0F8001155
:1005300070470000F0B40E4B1B680C46C3F3022357
:10054000C3F10705042D00D90425191D072901D27F
:10055000002300E0DB1E012606FA05F1491E2140BA
:1005600099409E40761E16403143F0BC00F0B2BD6B
:100570000CED00E0064900F0070208684FF6FF03A3
:10058000184040EA0220034A104308607047000008
:100590000CED00E00000FA052DE9F0470F460500DC
:1005A00061D0434E306800F00700B84209D230688D
:1005B00020F0070038433060306800F00700B84290
:1005C00051D128683B4C810712D5400703D560689C
:1005D00040F4E06060602878000703D5606840F46C
:1005E000605060606068A96820F0F00008436060B7
:1005F0002878C00728D06868012810D02168022810
:1006000010D0890700292EDA616821F00301014327
:100610006160FFF703FF804641F288390DE02168F1
:100620008903EFE78901EDE7FFF7F8FEA0EB08018A
:10063000494502D90320BDE8F0876068696800F089
:100640000C00B0EB810FEFD1306800F00700B8422A
:100650000BD9306820F0070038433060306800F074
:100660000700B84201D00120E5E72878400705D50A
:100670006068E96820F4E06008436060287800075B
:1006800006D56068296920F4605040EAC1006060C6
:1006900000F048F86168084AC1F30311515CC84092
:1006A0000649086006480068FFF7D8FE0020C2E748
:1006B00000200240001002405C28000810000020CA
:1006C000080000200F2202600C4A536803F0030365
:1006D0004360536803F0F0038360536803F4E063FE
:1006E000C36052684FF4E06303EAD2020261044837
:1006F000006800F00700086070470000001002402A
:10070000002002400448054900684968044AC1F3D2
:10071000C221515CC8407047100000200010024008
:100720006C28000812A185B00FC98DE80F0014A035
:10073000144A006804905168134801F00C03042B1C
:1007400010D0082B0ED1C1F38343C9031DF8030059
:100750000AD5516804AAC1F34041515C0A4A50438A
:10076000B0FBF1F005B0704708494843FAE70000D4
:1007700002030405060708090A0B0C0D0E0F1010E2
:10078000010200000010024000127A0000093D0042
:100790002DE9F84F040070D02078C04DC00749D033
:1007A0006868C0F38100012807D06868C0F3810041
:1007B000022809D16868C00306D52868800339D5A6
:1007C00060680028E7D035E06068B0F5803F0BD066
:1007D00010B1B0F5A02F11D0286820F48030286027
:1007E000286820F4802002E0286840F480302860E7
:1007F000606890B1FFF712FE06460AE0286840F4F0
:1008000080202860F0E700BFFFF708FE801B642807
:1008100073D828688003F7D50CE0FFF7FFFD064684
:1008200005E000BFFFF7FAFD801B6428F0D82868B8
:100830008003F7D420789A4E80074FF001094FF0DB
:10084000000839D5686810F00C0F07D06868C0F34D
:100850008100022809D16868C00306D4286880078F
:1008600014D52069012808D110E02069B0B1C6F87C
:100870000090FFF7D3FD074605E00AE1FFF7CEFD44
:10088000C01B0228C4D828688007F7D5286861698A
:1008900020F0F80040EAC10028600DE0C6F80080B2
:1008A000FFF7BCFD074604E0FFF7B8FDC01B0228B8
:1008B00023D828688007F7D4207800072CD57948FA
:1008C000A169D9B1C0F80090FFF7A8FD074604E080
:1008D000FFF7A4FDC01B02280FD8686A8007F7D570
:1008E00071484FF4FA510068B0FBF1F0009000BF7E
:1008F0000098411E0091FAD20EE080E0C0F800801E
:10090000FFF78CFD074604E0FFF788FDC01B0228B7
:1009100075D8686A8007F7D42078400760D5E86901
:100920000027C00008D4E86940F08050E861E86919
:10093000012700F0805000905C480168C90513D47D
:100940000168834641F480710160FFF767FD8246CC
:1009500006E000BFFFF762FDA0EB0A0064284ED856
:10096000DBF80000C005F5D5E06801280AD008B121
:10097000052813D0286A20F001002862286A20F098
:10098000040002E0286A40F001002862E06841F2B9
:10099000883B98B1FFF742FD82460BE0286A40F0A1
:1009A00004002862EEE700BFFFF738FDA0EB0A0164
:1009B00059455AD8286A8007F6D50CE0FFF72EFD76
:1009C000824605E0FFF72AFDA0EB0A0159454CD805
:1009D000286A8007F6D41FB1E86920F08050E861EA
:1009E000E06988B36968C1F38101022944D0022813
:1009F000C6F8608004D0FFF711FD044638E034E00B
:100A0000FFF70CFD074604E0FFF708FDC01B0228B6
:100A10002BD828688001F7D4206AB0F5803F05D133
:100A20006868A16820F4003008436860D4E90801D0
:100A30000843696821F4741108436860C6F860903F
:100A4000FFF7ECFC044606E025E000BFFFF7E6FCFC
:100A5000001B022809D828688001F7D51BE000BFD9
:100A6000FFF7DCFC001B022802D90320BDE8F88F49
:100A700028688001F4D40EE00128F7D06868226A63
:100A800000F48031914204D1616A00F47010884210
:100A900001D00120EAE70020E8E700000010024052
:100AA00000004242800442421000002000700040DA
:100AB0007047704770B590F83C20012A26D0012479
:100AC00080F83C40022280F83D2003685A689D6807
:100AD00022F070060A6832435A600D4B02689A424F
:100AE00008D0B2F1804F05D00A4B9A4202D00A4B8F
:100AF0009A4204D1496825F080031943916080F837
:100B00003D40002180F83C10084670BD022070BDB9
:100B1000002C0140000400400008004010B5040013
:100B200003D094F83D0010B107E0012010BD002073
:100B300084F83C00204600F01EF8022084F83D00B6
:100B4000211D206800F05AFA012084F8460084F83C
:100B50003E0084F83F0084F8400084F8410084F8A7
:100B6000420084F8430084F8440084F8450084F887
:100B70003D00002010BD704790F83D10012901D0C4
:100B800001207047022180F83D100168CA6842F0D8
:100B90000102CA6000680B49884208D0B0F1804F5A
:100BA00005D00949884202D00849884204D18168A9
:100BB00001F00701062903D0016841F0010101603D
:100BC00000207047002C0140000400400008004055
:100BD00070B5044690F83C00012817D0012584F830
:100BE0003C50022084F83D002068826822F07702A1
:100BF00022F47F4282600868502830D00DDC202823
:100C00004DD005DC98B310283BD148E0022070BDE0
:100C1000302844D0402834D139E0602828D07028CA
:100C200006D0B0F5805F2CD0B0F5005F29D10AE086
:100C3000CB68D1E90121206800F016FA20688168AC
:100C400041F0770109E0CB68D1E90121206800F08B
:100C50000BFA2068816841F48041816011E0CA6824
:100C60004968206800F012FA5021206807E016E079
:100C7000CA684968206800F01AFA6021206800F00C
:100C8000FDF984F83D50002084F83C0070BDCA682E
:100C90004968206800F0FAF940212068EFE72268EF
:100CA00001461046EBE7704770B5044600680169DD
:100CB0004FF00005C943890715D4C168C9438907A6
:100CC00011D4E91E01610120207720688069800726
:100CD000204602D0FFF7E7FF04E000F098F8204636
:100CE00000F096F8257720680169C943490717D4B1
:100CF000C168C943490713D46FF0040101610220A0
:100D000020772068806910F4407F204602D0FFF7EA
:100D1000CAFF04E000F07BF8204600F079F8257760
:100D200020680169C943090716D4C168C943090786
:100D300012D46FF008010161042020772068C06997
:100D40008007204602D0FFF7AEFF04E000F05FF816
:100D5000204600F05DF8257720680169C943C9067F
:100D600017D4C168C943C90613D46FF010010161DB
:100D7000082020772068C06910F4407F204602D008
:100D8000FFF791FF04E000F042F8204600F040F841
:100D9000257720680169C943C90708D1C168C943DB
:100DA000C90704D1891E0161204600F033F820688C
:100DB0000169C943090609D4C168C943090605D4B4
:100DC0006FF0800101612046FFF772FE2068016923
:100DD000C943490609D4C168C943490605D46FF01F
:100DE00040010161204600F01FF820680169C943F5
:100DF00089060BD4C168C943890607D46FF0200166
:100E000001612046BDE87040FFF753BE70BD7047DA
:100E10007047000000680349884201D1FFF704BB16
:100E200070470000002C01407047FEE72DE9F043B9
:100E300085B00024204800940194029403948169B1
:100E400041F020018161816901F0200104918169F3
:100E500041F004018161816901F00401049181691B
:100E600041F0080181618069DFF8508000F00800DE
:100E700040F201150490002229464046FFF7C8FAC7
:100E8000DFF83C90002229464846FFF7C1FA0227C6
:100E9000012603970095CDE9016469464046FFF7B6
:100EA000C7F903970095CDE9016469464846FFF705
:100EB000BFF905B0BDE8F083001002400008014012
:100EC000000C014010B586B0002415480094019430
:100ED0000294039404944FF08041059401601149F9
:100EE00042F210720968B1FBF2F1491EC0E9011427
:100EF0000921C0E903148461FFF710FE4FF480500C
:100F0000009069460648FFF763FE049404A904486C
:100F10000594FFF7CFFD0248FFF72EFE06B010BD87
:100F20008C00002010000020FEE7FEE72DE9F041D4
:100F300017460C4605461E46012219463846FFF75D
:100F400067FA284600F0E6F8002231463846FFF7F7
:100F50005FFA601BBDE8F04100F0DCB810B550202E
:100F600080F31188BFF34F8FBFF36F8F01F0D4FA76
:100F700018B104494FF080500860002080F31188B8
:100F800010BD000004ED00E030B58FB028216846A8
:100F9000FFF72FF914210AA8FFF72BF90121080404
:100FA000CDE900100024029402250491CDE90750F8
:100FB0004FF4E01009906846FFF7EAFB0F20CDE9F7
:100FC0000A056802CDE90C4002210AA80E94FFF739
:100FD000E3FA0FB030BD70470148FFF765BE00006F
:100FE000D400002003480168491C01600248FFF753
:100FF0005BBE0000000000208C000020F0B50268FD
:10100000164B174C174D4FF08047984205D0B84209
:1010100003D0A04201D0A84203D122F070064A6852
:101020003243984205D0B84203D0A04201D0A84232
:1010300003D122F44074CA6822434C6922F0800232
:10104000224302608A68C2620A688262984201D1C1
:101050000969016301214161F0BD0000002C0140DC
:10106000000400400008004010B5846842EA0322F2
:1010700024F47F440A432243826010BD826822F038
:1010800070020A4342F007018160704710B5036A9D
:10109000046A24F001040462846924F0F00444EA40
:1010A000021423F00A020A438461026210BD10B5E3
:1010B000036A23F0100303628369046A23F4704314
:1010C00043EA023224F0A00343EA01118261016283
:1010D00010BDFEE70907090E002804DB00F1E0203F
:1010E00080F80014704700F00F0000F1E02080F855
:1010F000141D704702E008C8121F08C1002AFAD167
:1011000070477047002001E001C1121F002AFBD187
:1011100070470000034A116813685B1A8342FBD3CF
:101120007047000000000020FFF786F9FFF72CFF52
:10113000FFF77CFEFFF7C6FE00F022F80C4C002201
:1011400021460C4800F058F80B4D0022294609486A
:1011500000F052F800222146084800F04DF8002225
:101160002946064800F048F800F026F8FEE700009F
:1011700000080140B91A0008000C0140C91A000813
:10118000EFF3058058B9EFF3108040B909490868BA
:10119000022801D030B109E0EFF3118030B16FF0D7
:1011A0000500704701200860002070474FF0FF30B5
:1011B000704700006400002010B5EFF3058060B9AF
:1011C000EFF3108048B90B490868022802D00128C3
:1011D00006D00BE0EFF3118040B16FF0050010BDB9
:1011E0000220086000F0FEFD002010BD4FF0FF302F
:1011F00010BD000064000020F0B585B04FEA010387
:101200004FF00004EFF305810394A1BBEFF31081CD
:1012100089BB21490968022902D1EFF3118151BB31
:1012200048B3802618218DF8104004AD42B31768EA
:1012300007B13D4697691FB139467F1E382F02D24C
:101240001779FF0702D0002005B0F0BD576907B13C
:10125000BE08D2F808C0BCF1000F0DD0D4685C2CD9
:1012600018D312693AB137B18DE8061032462946D3
:1012700001F013F903900DE0D7685FB912694AB91C
:1012800003AACDE90012B2B2294601F0D9F801282B
:1012900000D003940398D7E7640000202DE9F041C3
:1012A000134C0F46054666692068001D00F028FCB7
:1012B000681C07D137B12168BDE8F0410D48091D10
:1012C00000F06EBC20683544B5424560216805D207
:1012D000A068BDE8F041091D00F04ABC6068091D26
:1012E00000F046FC206B854200D22563BDE8F0810A
:1012F000140000200C0600202DE9F041054600F006
:101300005BFC2D4C2069401C206120682B4F10B1E4
:10131000E06930B32BE025602069012827D1002641
:1013200006EB860007EB800000F014FC761C382EDC
:10133000F6D3234800F00EFC2148143000F00AFCDC
:101340001F48283000F006FC1D483C3000F002FC2D
:101350001B48503000F0FEFB194860601430A0605C
:1013600005E02068E96AC06A884200D82560E06A22
:10137000401CE0626864E86AA169884200D9A06103
:1013800000EB800007EB8000291D00F009FC00F055
:1013900033FCE06900280CD02068E96AC06A884202
:1013A00007D208494FF080500860BFF34F8FBFF35A
:1013B0006F8FBDE8F0810000140000205C01002068
:1013C000BC05002004ED00E038B500F0F5FB104C42
:1013D000A068C8B90F4800F0BDFB0E48143000F0FB
:1013E000B9FB0C482060143060600A4B00202833A1
:1013F000009003F1500210210A2000F0C5FDA0600A
:1014000010B105A100F076FCBDE8384000F0F4BB57
:101410005000002020060020546D72510000000092
:1014200030B4026C0B46002A0BD0C1681144C16075
:101430004468A14201D30168C16030BC1846FEF780
:10144000BFBE30BC70472DE9F041856B174604469E
:101450000026026C82B1C7B1E068FEF7B1FEE16818
:10146000206C091AE1602268914202D26168081A70
:10147000E060022F16D017E02068A8B9606801F07C
:10148000AFF80646002060600EE0A068FEF798FE08
:10149000216CA0680844A0606168884204D3206879
:1014A000A06001E005B16D1E6D1CA5633046BDE86E
:1014B000F08110B5044690F8590058B101280CD0BD
:1014C00002280FD0502080F31188BFF34F8FBFF355
:1014D0006F8FFEE7206B00F0A3FB2046BDE81040B5
:1014E00000F09EBB10BD000010484FF44061420761
:1014F00006D0C01D0D4920F00700411AC1F540611A
:101500000B4A00230144C2E900030839103A21F0D4
:10151000070111604B600B600B1AC0E90013936068
:101520004FF000405360D06070470000F00D002085
:1015300078000020144E154CA6F29C474FF08058BE
:10154000DFF84C9012E000BF00F036FBF068C56891
:10155000281D00F0D5FA2069401E2061E068401E79
:10156000E06000F049FB2846FFF7A3FFE068002891
:10157000EAD138680128F9D9C9F80080BFF34F8F44
:10158000BFF36F8FF2E70000F80500201400002081
:1015900004ED00E070B51D46049C51B1C4F8002074
:1015A000C4E90F010121204600F022FD84F84C50CF
:1015B00070BD2460F4E72DE9F0470E46DDE90984AB
:1015C0001746824691009946089DA522206BFEF79A
:1015D00009FE6FF00301206B01EB8701084420F046
:1015E0000707780707D0502080F31188BFF34F8F8B
:1015F000BFF36F8FFEE72218315C82F83410315C44
:1016000011B1401C1028F6D3002684F84360382D11
:1016100000D33725E562C4E91356201D00F0A5FA72
:1016200004F1180000F0A1FA2461C5F138006462E9
:10163000A061666584F858604A465146384600F015
:101640004DFA2060B8F1000F01D0C8F80040BDE8A5
:10165000F087000030B5114900E011460A68824267
:10166000FBD34B685C18844203D14068184448603F
:10167000084643681C18944209D1084C103C246861
:10168000A24209D052681A4442600A681268026095
:10169000814200D0086030BD0460F9E77800002086
:1016A00070B5002441600B4D0061914206D8D11AFB
:1016B0008269914206D2011D686807E09A4203D20E
:1016C000994201D3012403E0011D286800F050FA7B
:1016D000204670BD5000002010B5044600F06CFAA2
:1016E000A06B28B15FF0000400F086FA204610BD20
:1016F0000124F9E730B589B0304D55E00498002851
:1017000006DADDE90601059A9047049800284BDBCC
:10171000069C606910B1201D00F0F2F902A800F0EB
:10172000B9F8024604980A283ED2DFE800F0050521
:10173000053D263705053D260598A1690346014468
:101740002046FFF7ADFF00B3616A20468847E06995
:10175000012829D1002000900598A1690023421892
:101760001946204601F046F878B9502080F31188D8
:10177000BFF34F8FBFF36F8FFEE70598A06128B1CD
:10178000811813462046FFF78BFF0DE0502080F3B1
:101790001188BFF34F8FBFF36F8FFEE794F82C00D3
:1017A00010B9204600F03CFA002204A9A86800F015
:1017B00071FD0028A2D109B030BD0000500000200A
:1017C0002DE9FC410F46054600F050FB01A800F052
:1017D00061F80446019818B100F07AFFBDE8FC8179
:1017E000224EAFB170680068A8B30027291B3A46A3
:1017F000B06800F093FA00F06BFF0028EED11C49AE
:101800004FF080500860BFF34F8FBFF36F8FE5E755
:10181000A542EBD800F05CFF30682746C068C4687A
:10182000201D00F06DF9E069012810D1A0692B4658
:1018300041193A462046FFF733FF40B100200346E6
:10184000014600902A46204600F0D4FF20B1616A8C
:1018500020468847C2E707E0502080F31188BFF395
:101860004F8FBFF36F8FFEE70127BFE750000020C7
:1018700004ED00E006484168096829B14168C9687B
:10188000C9684968016370474FF0FF31FAE700000B
:101890001400002070B5054600F038FE064E0446E0
:1018A0003069844203D200F009F8012000E00020F2
:1018B00028602046346170BD50000020F8B5194DF5
:1018C0001FE0C068C4680668201D00F019F9616A4D
:1018D00020468847E069012813D1A0693044B0420E
:1018E00006D924616060211D286800F041F908E0F4
:1018F00000200346014600903246204600F07AFF61
:1019000038B1286801680029DBD16968C5E9001091
:10191000F8BD502080F31188BFF34F8FBFF36F8F56
:10192000FEE700005000002008484068401C4FF0CF
:10193000500080F3118804D0BFF34F8FBFF36F8F37
:10194000FEE7BFF34F8FBFF36F8FFEE780000020ED
:10195000074C2068016841B1C0680021D0F8000040
:10196000FFF72EFFFFF7C6FEF3E701210020F7E7A0
:10197000500000202DE9F041044600F01DF994F9D3
:10198000455004F1240609E0606A48B1304600F091
:1019900067FE08B100F0ECF96D1E6DB2002DF3DCAE
:1019A0004FF0FF3684F8456000F026F900F004F9A6
:1019B00094F9445004F1100709E0206948B1384611
:1019C00000F04EFE08B100F0D3F96D1E6DB2002D8F
:1019D000F3DC84F84460BDE8F04100F00DB900008C
:1019E0002DE9F0410546002700F040FA314E3068FD
:1019F00008B9FFF779FDF06805424BD1C5B308354A
:101A000068070ED005F00700C0F10800054468071C
:101A100007D0502080F31188BFF34F8FBFF36F8F33
:101A2000FEE72DB37068854234D822481030014655
:101A30000C6801E020460C466168A94202D2216888
:101A40000029F7D131688C4224D0076821680160F1
:101A500060680837411B10290FD96019420708D068
:101A6000502080F31188BFF34F8FBFF36F8FFEE7D5
:101A700010E041606560FFF7EDFD61687068401A35
:101A80007060B268904200D2B060F06801430020FC
:101A9000C4E9000100F01CFE780707D0502080F355
:101AA0001188BFF34F8FBFF36F8FFEE73846BDE855
:101AB000F0810000680000200446012322461E2118
:101AC0000A20FFF733FAF8E705464FF480742346FF
:101AD0002A461E210F20FFF729FAF8E710B5031F49
:101AE0004FF080741C601B1F21F001011960191F49
:101AF000024B0B60143940380A6010BD29190008E8
:101B0000D0E9013201699A60D0E901235A604A683C
:101B1000824201D182684A60002202610868401E48
:101B20000860086870470000034B036003F15C0025
:101B3000086080201060704738070020044B036065
:101B400003F15C0008604FF4807010607047000083
:101B50009409002000F108014FF0FF32C0E90112A2
:101B6000C16001610021016070470021016170477F
:101B700030B50B685A1C02D000F1080202E002697D
:101B800004E02246546825689D42FAD953684B60A8
:101B900099608A60516008610168491C016030BD2C
:101BA00042684A6093688B609368596091600861ED
:101BB0000168491C01607047502080F31188BFF311
:101BC0004F8FBFF36F8F0A494868401C4860012857
:101BD0000CD10848006810F0FF0F07D0502080F3A8
:101BE0001188BFF34F8FBFF36F8FFEE77047000080
:101BF0008000002004ED00E00849486828B1401E3C
:101C0000486001D180F311887047502080F311881B
:101C1000BFF34F8FBFF36F8FFEE7000080000020FF
:101C200070B5002827D0144DA0F108046168E86859
:101C3000014207D1502080F31188BFF34F8FBFF3CB
:101C40006F8FFEE722683AB1502080F31188BFF30E
:101C50004F8FBFF36F8FFEE78143616000F006F99D
:101C600060686968084468602046FFF7F3FCBDE8D7
:101C7000704000F02DBD70BD680000204FF0E020E6
:101C800000210161816105494FF47A720968B1FB55
:101C9000F2F1491E416107210161704710000020E7
:101CA00010B5FEF777FA114910280ED300F1E020A5
:101CB00090F8F0030A78904207D2502080F3118800
:101CC000BFF34F8FBFF36F8FFEE709480068896845
:101CD00000F4E060884207D9502080F31188BFF3F8
:101CE0004F8FBFF36F8FFEE710BD00008000002014
:101CF0000CED00E010B5084B002200BF53F8324055
:101D00001CB1521C082AF9D310BD43F8321003EB62
:101D1000C201486010BD00001C01002070B51546CE
:101D20000E460446FFF748FF94F944100020491C72
:101D300001D184F8440094F94510491C01D184F87C
:101D40004500FFF759FFA06B28B92A46314604F138
:101D5000240000F02BF82046BDE87040FFF70ABED3
:101D600002498A6A02604969416070471400002094
:101D700001490120486270471400002010B50C464C
:101D800050B1094909681831FFF7F2FE2046BDE855
:101D900010400121FFF782BA502080F31188BFF371
:101DA0004F8FBFF36F8FFEE71400002070B514460D
:101DB0000D4668B10A4909681831FFF7F1FE0CB108
:101DC0004FF0FF3521462846BDE87040FFF766BA60
:101DD000502080F31188BFF34F8FBFF36F8FFEE762
:101DE0001400002030B587B00024039405AA04A98C
:101DF00003A80494FFF798FEDDE903010094CDE900
:101E00000110002315A11748059A00F046FB164D56
:101E1000002868631FD000F0BDFC012809D0401CD9
:101E200019D1502080F31188BFF34F8FBFF36F8F0C
:101E3000FEE7502080F31188BFF34F8FBFF36F8F01
:101E40004FF0FF3028630120E8616C6107B0BDE806
:101E5000304000F045B807B030BD000049444C4563
:101E60000000000035150008140000200248816BB6
:101E7000491C81637047000014000020164810B50B
:101E8000816B11B10121416210BD00214162816964
:101E9000124A01E0B9B1491E01EB810352F8233027
:101EA000002BF7D001EB810302EB830202F108045F
:101EB00053685B685360A34201D15B685360DA6882
:101EC0000260816110BD502080F31188BFF34F8FF5
:101ED000BFF36F8FFEE70000140000205C010020BC
:101EE0001CB5264908780190FF20087008788DF805
:101EF00000009DF800009DF8002000F0F0009042E6
:101F000007D0502080F31188BFF34F8FBFF36F8F3E
:101F1000FEE79DF800001A4B00F0500018700720F3
:101F2000986005E09DF8002052008DF80020401ECA
:101F30009DF800201206F5D49860032807D05020A1
:101F400080F31188BFF34F8FBFF36F8FFEE74FF41D
:101F500040709860019808700A48016841F4700167
:101F60000160016841F070410160FFF787FE0020C9
:101F70005860FEF7D9F800201CBD000000E400E026
:101F80008000002020ED00E038B5049D18B153B169
:101F9000CAB181B120E0502080F31188BFF34F8F88
:101FA000BFF36F8FFEE7502080F31188BFF34F8F90
:101FB000BFF36F8FFEE7502080F31188BFF34F8F80
:101FC000BFF36F8FFEE739B1502080F31188BFF364
:101FD0004F8FBFF36F8FFEE750241C46012384F818
:101FE00046302B460094FFF7D5FA204638BD000056
:101FF00070B50D46040025D0FFF7DEFDD4E90F20B3
:10200000216802FB001161600021A1632168A160C9
:102010000A46D4E90F01401E00FB0121E160214680
:102020004FF0FF3001F8440F487004F110008DB1FB
:10203000FFF790FD04F12400FFF78CFDFFF7DCFDB6
:10204000012070BD502080F31188BFF34F8FBFF384
:102050006F8FFEE721690029F0D000F001FB002816
:10206000ECD004494FF080500860BFF34F8FBFF3AE
:102070006F8FE3E704ED00E02DE9FF4782B01D46D6
:102080008A464FF00008040003D0BAF1000F08D0D0
:1020900011E0502080F31188BFF34F8FBFF36F8F93
:1020A000FEE7206C38B1502080F31188BFF34F8FCA
:1020B000BFF36F8FFEE7022D0AD1E06B012807D036
:1020C000502080F31188BFF34F8FBFF36F8FFEE76F
:1020D00000F00EFA3F4F4FF000094FF0805648B91C
:1020E000049838B1502080F31188BFF34F8FBFF3AD
:1020F0006F8FFEE7FFF760FDA06BE16B884207D3AF
:10210000022D05D00498D0B1B8F1000F1AD01EE00E
:102110002A4651462046FFF796F9616A19B104F143
:10212000240000F09DFA20B13E60BFF34F8FBFF353
:102130006F8FFFF761FD012006B0BDE8F087FFF764
:102140005BFD22E06846FFF70BFE4FF00108FFF74A
:1021500053FDFFF78BFEFFF72FFD94F94400401C61
:1021600001D184F8449094F94500401C01D184F8D1
:102170004590FFF741FD04A9684600F027F930B10A
:102180002046FFF7F7FB00F0A3FA0020D4E7FFF7A3
:1021900013FDA06BE16B884213D1FFF72DFD04F115
:1021A00010000499FFF7EAFD2046FFF7E3FB00F07B
:1021B0008FFA00289ED13E60BFF34F8FBFF36F8F21
:1021C00098E7FFF719FD2046FFF7D4FB00F080FAEF
:1021D00090E7000004ED00E02DE9F0471F4690462F
:1021E0008946040003D0B9F1000F08D011E0502057
:1021F00080F31188BFF34F8FBFF36F8FFEE7206C22
:1022000038B1502080F31188BFF34F8FBFF36F8F29
:10221000FEE7022F0AD1E06B012807D0502080F39F
:102220001188BFF34F8FBFF36F8FFEE7FFF738FDC5
:102230005020EFF3118680F31188BFF34F8FBFF367
:102240006F8FA06BE16B884206D3022F04D0002071
:1022500086F31188BDE8F08794F945503A4649461F
:102260002046FFF7F0F8681C04D06D1C84F8455038
:102270000120EDE7606A0028FAD004F1240000F0A4
:10228000EFF90028F4D0B8F1000FF1D00121C8F81F
:102290000010EDE72DE9F747002683B08A460400D9
:1022A00003D0BAF1000F08D011E0502080F311885C
:1022B000BFF34F8FBFF36F8FFEE7206C38B1502014
:1022C00080F31188BFF34F8FBFF36F8FFEE700F0ED
:1022D0000FF9DFF8F4804FF000094FF0805748B94C
:1022E000059838B1502080F31188BFF34F8FBFF3AA
:1022F0006F8FFEE7FFF760FCA56BC5B15146204626
:10230000FFF78EF86D1EA563206950B104F110002F
:1023100000F0A6F928B1C8F80070BFF34F8FBFF3E3
:102320006F8FFFF769FC012006B0BDE8F0870598C4
:1023300008B11EB106E0FFF75FFC27E06846FFF733
:102340000FFD0126FFF758FCFFF790FDFFF734FC67
:1023500094F94400401C01D184F8449094F945005C
:10236000401C01D184F84590FFF746FC05A968465A
:1023700000F02CF8002820460AD0FFF7FBFA00F006
:10238000A7F92046FFF7A8F90028B3D00020CBE733
:10239000FFF7A2F990B104F124000599FFF7EEFCD4
:1023A0002046FFF7E7FA00F093F90028A2D1C8F819
:1023B0000070BFF34F8FBFF36F8F9BE72046FFF78F
:1023C000D9FA00F085F995E704ED00E02DE9F04138
:1023D0000C46050011D0C4B1FFF7EEFB174B5A694C
:1023E0006E682068911B471C17D02F689B6A9F421C
:1023F00019D0964217D8012410E0502080F311889C
:10240000BFF34F8FBFF36F8FFEE7502080F311882B
:10241000BFF34F8FBFF36F8FFEE70024FFF7ECFB96
:102420002046BDE8F081884205D9401A2060284640
:10243000FFF796FCF1E700202060DCE714000020A5
:102440002DE9FF5F8346DDE90E87994616468A46E9
:102450009000FFF7C5FA05001CD05C20FFF7C0FA1A
:10246000040014D00020256384F85900CDE902400F
:10247000CDE900874B46324651465846FFF79BF858
:102480002046FEF739FF012004B0BDE8F09F284642
:10249000FFF7C6FB4FF0FF30F6E7F0B585B0DDE99A
:1024A0000B640A9DA6B1DCB15C2700972663022667
:1024B00084F85960002604AFCDE90246CDE9005703
:1024C000FFF779F82046FEF717FF049805B0F0BD36
:1024D000502080F31188BFF34F8FBFF36F8FFEE75B
:1024E000502080F31188BFF34F8FBFF36F8FFEE74B
:1024F0000548C16919B1806B18B1002070470120EF
:102500007047022070470000140000200148406915
:1025100070470000140000202DE9F0412E4C0027E8
:10252000A06B40B1206A401C2062606A00B10127A4
:102530003846BDE8F0816669761C666113D1606833
:10254000006838B1502080F31188BFF34F8FBFF37C
:102550006F8FFEE76068A1686160A060A06A401CA0
:10256000A062FFF787F9206BDFF87080864209D3FD
:102570006068006880B16068C068C5686868864245
:102580000DD220632068C06A00EB800158F821005A
:102590000128CAD90127C8E74FF0FF30F1E7281D0D
:1025A000FFF7AEFAA86A18B105F11800FFF7A8FA0C
:1025B000E86AA169884200D9A06100EB800108EBBC
:1025C0008100291DFFF7ECFAE86A2168C96A884290
:1025D000CED30127CCE70000140000205C010020CE
:1025E00070B504004FF0000133D01B4D28688442C1
:1025F00007D0502080F31188BFF34F8FBFF36F8F48
:10260000FEE7206D38B1401E2065E36CE26A9A4215
:102610001FD040B11DE0502080F31188BFF34F8FD1
:10262000BFF36F8FFEE7201DFFF76AFAE06CE062F0
:10263000C0F13800A061E06AA969884200D9A861A8
:10264000064900EB800001EB8000211DFFF7A8FA8E
:102650000121084670BD0000140000205C0100202C
:1026600070B5C068C46854B104F118000646FFF79D
:1026700047FA144DA86B50B13146134815E050206D
:1026800080F31188BFF34F8FBFF36F8FFEE7201DDC
:10269000FFF736FAE06AA969884200D9A8610B49B8
:1026A00000EB800001EB8000211DFFF779FAE06A62
:1026B0002968C96A884202D90120686270BD002079
:1026C00070BD000014000020E40500205C01002023
:1026D0002DE9F0472C4D00242746A86B38B1FFF7B1
:1026E0006BFAA86B401EA863A86B40B146E050206F
:1026F00080F31188BFF34F8FBFF36F8FFEE7296917
:10270000224E0120D1B3A6F5916980463068E0B130
:10271000F068C46804F11800FFF7F2F9201DFFF714
:10272000EFF9E06AA969884200D9A86100EB80014D
:1027300009EB8100211DFFF733FAE06A2968C96AB5
:102740008842E3D3C5F82480E0E70CB1FFF792F8A4
:102750002C6A4CB14FEA0806FFF7DEFE00B16E624C
:10276000641EF9D100202862686A38B1084901273F
:1027700038070860BFF34F8FBFF36F8FFFF73CFA46
:102780003846BDE8F087000014000020E405002072
:1027900004ED00E010B586B0FEF716FE114CA068FF
:1027A000B8B100200390049005AA04A903A8FFF77C
:1027B000C5F9DDE9032102208DE8070000230AA105
:1027C0000B48059AFFF769FEE06010B106B00120E2
:1027D00010BD502080F31188BFF34F8FBFF36F8F70
:1027E000FEE7000050000020546D72205376630015
:1027F000511900082DE9FF411E46134602000A9DAB
:102800004FF0000016D0144CA768002F0FD0CDE970
:1028100000130292062917DAFFF76AFE02284FF02A
:1028200000030FD000226946A068FFF725FC04B022
:10283000BDE8F081502080F31188BFF34F8FBFF3C4
:102840006F8FFEE72A46EEE7002332466946384698
:10285000FFF7C2FCEBE70000500000200000000082
:102860000000000001020304060708090000000040
:102870000102030494280008000000208C000000DE
:10288000F4100008202900088C000020641D0000BE
:10289000041100080000000001000000100000000A
:1028A000000000000024F400000000000000000010
:1028B0000000000000000000000000000000000018
:1028C0000000000000000000000000000000000008
:1028D00000000000000000000000000000000000F8
:1028E00000000000000000000000000000000000E8
:1028F00000000000000000000000000000000000D8
:1029000000000000000000000000000000000000C7
:102910000000000000000000AAAAAAAA000000000F
:04000005080000ED02
:00000001FF
